:020000040800F2
:10000000C80B0020710200081D250008491F0008C8
:100010001B2500089B050008692700080000000058
:100020000000000000000000000000002125000882
:100030009D050008000000001F250008232500087A
:100040008B0200088B0200088B0200088B0200085C
:100050008B0200088B0200088B0200088B0200084C
:100060008B0200088B0200088B0200088B0200083C
:100070008B0200088B0200088B0200088B0200082C
:100080008B0200088B0200088B0200088B0200081C
:100090008B0200088B0200088B0200088B0200080C
:1000A0008B0200088B0200088B0200088B020008FC
:1000B0008B0200088B0200088B0200088B020008EC
:1000C0008B0200088B0200088B0200088B020008DC
:1000D0008B0200088B0200088B0200088B020008CC
:1000E0008B0200088B0200088B0200088B020008BC
:1000F0008B0200088B0200088B0200088B020008AC
:100100008B0200088B0200088B0200088B0200089B
:100110008B0200088B0200088B0200088B0200088B
:100120008B0200088B0200088B0200088B0200087B
:100130008B0200088B0200088B0200088B0200086B
:100140008B0200088B0200088B0200088B0200085B
:100150008B0200088B0200088B0200088B0200084B
:100160008B0200088B0200088B0200088B0200083B
:100170008B0200088B0200088B02000800000000C0
:100180008B0200088B02000800F002F800F060F813
:100190000AA090E8000C82448344AAF10107DA45E2
:1001A00001D100F055F8AFF2090EBAE80F0013F0D4
:1001B000010F18BFFB1A43F0010318470850000055
:1001C0002850000010F8013B0A4413F0030408BF54
:1001D00010F8014B1D1108BF10F8015B641E05D01B
:1001E00010F8016B641E01F8016BF9D1002D15D0D8
:1001F00010F8014B03F00C030C2BA1EB04040ABF15
:1002000010F8013BA4EB8314A4EB032405F10103D4
:1002100014F8016B5B1E01F8016BF9D5914238BFF0
:1002200010F8013BD1D3704700230024002500269D
:10023000103A28BF78C1FBD8520728BF30C148BF49
:100240000B6070471FB504F0ACFF1FBD10B510BDAB
:1002500000F06AF91146FFF7F5FF04F031FE00F0F7
:1002600088F903B4FFF7F2FF03BC00F08FF9000038
:100270000948804709480047FEE7FEE7FEE7FEE73A
:10028000FEE7FEE7FEE7FEE7FEE7FEE70448054976
:10029000054A064B70470000B9250008890100088F
:1002A000C8050020C80B0020C8070020C807002090
:1002B00053EA020C00F069802DE9F04B4FF0000684
:1002C000002B1FBFB3FA83F503FA05F424FA05F6F1
:1002D0005E4012BF1643B2FA82F502FA05F4C5F188
:1002E00020051EBF22FA05FC44EA0C04203556EA1C
:1002F000044C4FEA144418BF641C4FF000084FF040
:100300000009904271EB030C39D3002919BFB1FAEF
:1003100081F701FA07F6B0FA80F700FA07F6C7F19D
:1003200020071EBF20FA07FC46EA0C062037B6FB62
:10033000F4FCA7EB0507103F07F01F0BCBF12006DD
:100340000CFA0BFB2CFA06F644BFB3460026202F0E
:10035000A4BF5E464FF0000B5BEA060C08BF4FF0EF
:10036000010B19EB0B09ABFB027C48EB0608C01B29
:1003700006FB02CC0BFB03CC71EB0C01C1E70B4677
:10038000024641464846BDE8F08B13B54FF00000E9
:100390004FF00001AFF30080BDE81C40704740EA19
:1003A0000103024630B59B0710D14FF0013400E045
:1003B00008C208C91D1B9D4315EAC41FF8D013F0DD
:1003C000FF0102F8011B0DD01B0AF8E711F8013BF1
:1003D000002B02F8013B05D011F8013B002B02F87D
:1003E000013BF3D130BD032A40F2308010F0030C02
:1003F00000F0158011F8013BBCF1020F624498BF78
:1004000011F801CB00F8013B38BF11F8013BA2F114
:10041000040298BF00F801CB38BF00F8013B11F08F
:10042000030300F02580083AC0F0088051F8043B2F
:10043000083A51F804CBA0E80810F5E7121D5CBF9C
:1004400051F8043B40F8043BAFF30080D20724BFCF
:1004500011F8013B11F801CB48BF11F8012B24BF63
:1004600000F8013B00F801CB48BF00F8012B7047B2
:1004700010B5203AC0F00B80B1E81850203AA0E83F
:100480001850B1E81850A0E81850BFF4F5AF5FEA73
:10049000027C24BFB1E81850A0E8185044BF18C926
:1004A00018C0BDE810405FEA827C24BF51F8043BCD
:1004B00040F8043B08BF7047D20728BF31F8023B21
:1004C00048BF11F8012B28BF20F8023B48BF00F8B5
:1004D000012B70474FF0000200B513469446964634
:1004E000203922BFA0E80C50A0E80C50B1F1200147
:1004F000BFF4F7AF090728BFA0E80C5048BF0CC0F5
:100500005DF804EB890028BF40F8042B08BF704752
:1005100048BF20F8022B11F0804F18BF00F8012BC4
:100520007047704770477047754600F02BF8AE462D
:1005300005006946534620F00700854618B020B5EF
:10054000FFF7A4FEBDE820404FF000064FF0000783
:100550004FF000084FF0000B21F00701AC46ACE86B
:10056000C009ACE8C009ACE8C009ACE8C0098D46D8
:10057000704710B50446AFF300802046BDE8104038
:10058000FFF76FBE0048704764050020014918203E
:10059000ABBEFEE7260002007047FEE77047000092
:1005A00070B5044600F0B8FA0546601C02D0044855
:1005B0000078044400F0B0FA401BA042FAD370BDAA
:1005C000100000202DE9F35FDFF82891DFF828A163
:1005D000DFF828B1044648451AD0544518D05C4588
:1005E00016D04748844213D04648844210D046482B
:1005F00084420DD0454884420AD04548844207D001
:100600004448844204D04FF4977143A004F0BBFAED
:10061000DFF840E100214FF00F0C0126019A8E40D7
:100620003240B24261D121F003037344D3F8080889
:100630008D072F0F0CFA07F505EA00084C4501D18C
:10064000002021E0544501D101201DE05C4501D18D
:10065000022019E02A48844201D1032014E02948ED
:10066000844201D104200FE02748844201D10520B3
:100670000AE02648844201D1062005E0244884424D
:1006800001D1072000E00820B840404514D1324F86
:100690003868904338603F1D3868904338603F1D8C
:1006A0003868904338603F1D386890433860D3F80D
:1006B0000808A843C3F8080822684B0003209840A4
:1006C00082432260CA0804EB8202156A4B07DF0EE0
:1006D0000CFA07F39D431562E2688243E2606268A8
:1006E000B2436260A2688243A260491C102994D37D
:1006F000BDE8FC9F000002400004024000080240E8
:10070000000C024000100240001402400018024099
:10071000001C0240002002402E2E2F447269766594
:1007200072732F53544D3332463478785F48414CBE
:100730005F4472697665722F5372632F73746D33E1
:1007400032663478785F68616C5F6770696F2E63BA
:100750000000000000300140003C01402DE9F84F4E
:10076000DFF884B20D46044658451BD09F488442AA
:1007700018D09F48844215D09E48844212D09E488B
:1007800084420FD09D4884420CD09D48844209D0B9
:100790009C48844206D09C48844203D0AC219BA054
:1007A00004F0F1F928680104090C01D0000C03D011
:1007B000AD2196A004F0E7F96868F8B101281DD0D2
:1007C00011281BD0022819D0122817D0B0F5881F85
:1007D00014D0B0F5041F11D0B0F5441F0ED0B0F501
:1007E000901F0BD0B0F5081F08D0B0F5481F05D0FA
:1007F000032803D0AE2185A004F0C5F900264FF0F0
:1008000003094FF00F0A0120B0402F6880460740CF
:1008100047457CD1287900F00300012801D0022847
:100820001DD1E86848B1012807D0022805D0032867
:1008300003D0C02175A004F0A6F9A168700009FAE0
:1008400000F29143EA6882400A43A2606068297915
:1008500020EA0800C1F30011B1400143616028792A
:10086000C043800712D0A86838B1012805D00228FB
:1008700003D0D12165A004F086F9E168700009FA7F
:1008800000F29143AA6882400A43E260287900F0AE
:10089000030002282ED12869F8B109281DD00128AB
:1008A0001BD0022819D0032817D0042815D00528FA
:1008B00013D0062811D007280FD008280DD00A28F9
:1008C0000BD00B2809D00C2807D00D2805D00F28F5
:1008D00003D0DE214DA004F056F9F00804EB8000AF
:1008E000026A7107C90E0AFA01F39A432B698B4019
:1008F000134303622168700009FA00F291432A79D8
:1009000002F0030282400A432260686800E065E06A
:1009100010F4403F62D04C48016841F480410160CE
:10092000006826F0030100F48040009047480A1850
:10093000D2F80838B007010F0AFA01F083435C458A
:1009400001D1002023E02948844201D101201EE08A
:100950002748844201D1022019E02648844201D16F
:10096000032014E02448844201D104200FE02348EE
:10097000844201D105200AE02148844201D10620A9
:1009800005E02048844201D1072000E0082088408B
:100990001843C2F808082E4908686A68B843D203A9
:1009A00000D5384308602A49091D08686A68B843B9
:1009B000920300D5384308602549083108686A6801
:1009C000B843D20200D53843086021490C31086889
:1009D0006A68B843920200D538430860761C102E2E
:1009E000FFF411AFBDE8F88F0000024000040240A0
:1009F00000080240000C02400010024000140240B7
:100A000000180240001C0240002002402E2E2F44FD
:100A10007269766572732F53544D33324634787849
:100A20005F48414C5F4472697665722F5372632F41
:100A300073746D3332663478785F68616C5F6770A9
:100A4000696F2E630000000044380240003001400E
:100A5000003C014070B50C00054604D14FF4BE7156
:100A600003A004F090F82869204000D0012070BD58
:100A70002E2E2F447269766572732F53544D333284
:100A8000463478785F48414C5F4472697665722FCE
:100A90005372632F73746D3332663478785F686194
:100AA0006C5F6770696F2E630000000070B51546BB
:100AB0000C00064604D140F29D1108A004F063F832
:100AC00045B1012D04D04FF4CF7104A004F05BF8C0
:100AD000B46170BD2004B06170BD00002E2E2F44A3
:100AE0007269766572732F53544D33324634787879
:100AF0005F48414C5F4472697665722F5372632F71
:100B000073746D3332663478785F68616C5F6770D8
:100B1000696F2E6300000000014880687047000084
:100B20001000002010B5040022D01249206888422D
:100B30000AD01149884207D01049884204D040F2B7
:100B40002F210FA004F01FF8242084F83D00206816
:100B5000016821F001010160204600F017FC00202F
:100B6000206484F83D0044F8300FA073207310BD5A
:100B7000012010BD0054004000580040005C0040BF
:100B80002E2E2F447269766572732F53544D333273
:100B9000463478785F48414C5F4472697665722FBD
:100BA0005372632F73746D3332663478785F686183
:100BB0006C5F6932632E630070B504007DD08A4992
:100BC000206888420AD08949884207D088498842EB
:100BD00004D040F2BF1187A003F0D5FF60689349AD
:100BE000401E884204D94FF4E07182A003F0CBFF8D
:100BF000A0684FF4804530B1A84204D040F2C11142
:100C00007CA003F0C0FFE068800A04D04FF4E171DB
:100C100078A003F0B8FF2069A84207D0B0F5404F94
:100C200004D040F2C31173A003F0ADFF606930B18E
:100C3000012804D04FF4E2716EA003F0A4FFA06974
:100C400030F0FE0004D040F2C5116AA003F09BFF13
:100C5000E06930B1402804D04FF4E37165A003F09F
:100C600092FF206A30B1802804D040F2C71161A001
:100C700003F089FF94F83D00002520B984F83C502A
:100C8000204600F09FFB242084F83D002068016886
:100C900021F0010101602068016841F40041016018
:100CA0002068016821F40041016000F0C9FD604B3B
:100CB0006168994202D85F4901E002E05E498842DA
:100CC00001D2012070BD5D492268B0FBF1F1566888
:100CD00026F03F060E43566062689A4206D94FF4EA
:100CE000967251434FF47A72B1FBF2F12268491CBB
:100CF000166A26F03F06314311626168994210D8A6
:100D00004900401EB0FBF1F2521CC2F30B02042A50
:100D100001D2042022E0B0FBF1F0401CC0F30B0034
:100D20001CE0A268F2B301EBC10303EB0116431E02
:100D3000B3FBF6F35B1C43F480431B0549D092B32D
:100D400001EBC10202EB0111401EB0FBF1F0401CAF
:100D5000C0F30B0040F4804040F400402168CA69B1
:100D60004CF6FF739A431043C861D4E9071001435E
:100D70002068026822F0C00211430160D4E9030137
:100D800001432068826848F2FF339A43114381602F
:100D9000D4E9051001432068C26822F0FF02114324
:100DA000C16001E00EE016E02068016841F0010139
:100DB00001602564202084F83D00256384F83E50BE
:100DC000002070BD01EB4106431EB3FBF6F35B1C34
:100DD000B3E70120C2E701EB4101401EB0FBF1F097
:100DE000401CC0F30B00B7E700540040005800401F
:100DF000005C00402E2E2F447269766572732F536B
:100E0000544D3332463478785F48414C5F447269C0
:100E10007665722F5372632F73746D333266347834
:100E2000785F68616C5F6932632E63007F1A060029
:100E3000A086010080841E0000093D0040420F0092
:100E40002DE9F84F984617468A460446DDF8289063
:100E5000FFF762FE054694F83D00202875D119235E
:100E600001226C492046009501F07CFA0028F5D15A
:100E700094F83C00012868D0012084F83C002068E8
:100E80000168C90703D1016841F0010101602068D0
:100E9000016821F400610160222084F83D001020E7
:100EA00084F83E00002626646762A4F82A80608DDC
:100EB00020855948E0622B464A465146204601F0BB
:100EC000E9F8002878D1208D544F68B1012814D05A
:100ED00002282068016816D041F480610160206812
:100EE00041698069009087E02068416981690091CB
:100EF000016841F4007101607EE02068016821F41E
:100F000080610160F0E721F4806101602068016880
:100F100041F40061E2E7032848D801280AD00228FA
:100F200014D04B46002239462046009501F01AFAAB
:100F3000D8BB27E02A464946204601F093FAA0BBD9
:100F400020680069616A08704DE061E04B4600224C
:100F500039462046009501F005FA30BB206801684B
:100F600041F40071016020680069616A0870606A7C
:100F7000401C6062218D491E2185618D491E61855D
:100F800021682EE02068016821F4806101602068FA
:100F90000069616A0870606A401C6062208D401EB2
:100FA0002085608D401E6085D0E705E02A464946D1
:100FB000204601F057FA10B10120BDE8F88F2068F3
:100FC0000069616A0870606A401C6062218D491E78
:100FD0002185618D491E618521684A69D243520786
:100FE0000AD409690170606A401C6062208D401E4D
:100FF0002085608D401E6085208D00288BD12020AB
:1010000084F83D0084F83E6084F83C600020D4E71A
:101010000220D2E7020010000000FFFF04000100E0
:101020002DE9F84F1F4690468A460446DDF8289081
:10103000FFF772FD054694F83D0020287FD1192363
:10104000012240492046009501F08CF9002876D114
:1010500094F83C00012872D0012084F83C002068FC
:101060000168C90703D1016841F0010101602068EE
:10107000016821F400610160212084F83D00102006
:1010800084F83E0000262664C4F824806785608DBD
:1010900020852D48E0622B464A465146204601F005
:1010A0006FF890B9206841698069009036E02A465F
:1010B0004946204601F00BFA50B1206C042804D1B7
:1010C0002068016841F4007101600120BDE8F88FDB
:1010D000606A216800780861626A521C6262608DF1
:1010E000401E6085208D401E80B2208521684B699E
:1010F000DB435B070BD450B110780861606A401C79
:101100006062608D401E6085208D401E20852A46CD
:101110004946204601F000F90028CED1208D002854
:10112000C5D154F83D0B016841F4007101602020E5
:1011300004F81E09E67766770020C7E7FFE702207C
:10114000C4E70000020010000000FFFF2DE9FF4F80
:1011500083B01F46DDE911A893460446DDF84090B0
:10116000FFF7DAFC0546012F06D0102F04D040F619
:10117000352175A003F007FD94F83D00202870D1BB
:10118000192301227E492046009501F0EBF8002842
:10119000F5D194F83C00012863D0012084F83C008C
:1011A00020680168C90703D1016841F001010160AD
:1011B0002068016821F400610160222084F83D006C
:1011C000402084F83E0000262664C4F82490A4F849
:1011D0002AA0608D20856B48E062CDE900853B4602
:1011E0005A462046049901F019F800287CD1208D38
:1011F000D0B1012821D00228206824D0416980691B
:101200000090208D032869D801282BD05E49022840
:1012100043464FF00002009559D00F46204601F09A
:10122000A1F8002860D13CE0206841698169009103
:10123000016841F40071016077E02068016821F4E1
:1012400080610160F0E7016821F48061016020683D
:10125000016841F400610160206841698069009083
:1012600063E06FE02A464146204601F0FBF898BB58
:1012700020680069616A08704EE02068016841F4E6
:101280000071016020680069616A0870606A401C32
:101290006062218D491E2185618D491E618521680D
:1012A00038E02068016821F48061016020680069ED
:1012B000616A0870606A401C6062208D401E208553
:1012C000608D401E608543460022394600952046C9
:1012D00001F048F800B9D0E706E0FFE72A464146AA
:1012E000204601F0BFF818B1012007B0BDE8F08F2B
:1012F00020680069616A0870606A401C6062218D24
:10130000491E2185618D491E618521684A69D24344
:1013100052070AD409690170606A401C6062208D1E
:10132000401E2085608D401E6085208D00287FF442
:1013300068AF202084F83D0084F83E6084F83C606B
:101340000020D2E70220D0E72E2E2F447269766566
:1013500072732F53544D3332463478785F48414C82
:101360005F4472697665722F5372632F73746D33A5
:1013700032663478785F68616C5F6932632E63002F
:10138000020010000000FFFF0400010010B500681B
:10139000094988420FD10948016821F40011016010
:1013A000074C40212046FFF70DF92046BDE81040CC
:1013B0008021FFF707B910BD0054004040380240BB
:1013C0000004024010B586B0044614216846FFF7B9
:1013D00081F813492068884220D112480021026810
:1013E00042F002020260006800F002000590C02096
:1013F00000901220CDE90101032003900420049005
:1014000069460948FFF7AAF906481030016841F417
:1014100000110160006800F40010059006B010BDD6
:101420000054004030380240000402400248816805
:101430000278114481607047100000200B4810B5FD
:10144000016841F400710160016841F4806101604C
:10145000016841F480710160032000F08FF80F20D3
:1014600000F006F800F024F8002010BD003C024017
:1014700070B50D4D04464FF47A712878B1FBF0F049
:101480000A490968B1FBF0F000F06EFC48B9102C75
:1014900007D200222146501E00F022F800206C6086
:1014A00070BD012070BD0000100000201C00002055
:1014B0000A4808B5016841F480410160006800F401
:1014C000804000900548001F016841F08051016094
:1014D000006800F08050009008BD000044380240D1
:1014E00070B514460D460646102A03D3AA2113A050
:1014F00003F049FB102D03D3AB2110A003F043FBF5
:101500001D480068C0F30223C3F10700042800D976
:101510000420191D072901D2002300E0DB1E01224F
:1015200002FA00F1491E294099409A40521E224079
:101530003046BDE87040114303F015BB2E2E2F44FA
:101540007269766572732F53544D3332463478780E
:101550005F48414C5F4472697665722F5372632F06
:1015600073746D3332663478785F68616C5F636F73
:10157000727465782E6300000CED00E010B504462F
:1015800007280BD0062C09D0052C07D0042C05D039
:10159000032C03D0922108A003F0F5FA154A04F0B9
:1015A000070110684FF6FF03184040EA0120124976
:1015B0000843106010BD00002E2E2F44726976651E
:1015C00072732F53544D3332463478785F48414C10
:1015D0005F4472697665722F5372632F73746D3333
:1015E00032663478785F68616C5F636F72746578B7
:1015F0002E6300000CED00E00000FA052DE9F04735
:101600000D4604007ED02068401E0E2804D94FF4F9
:10161000177178A003F0B7FA95B1012D10D0022D03
:101620000ED0032D0CD0042D0AD0052D08D0062D88
:1016300006D0072D04D040F25D216EA003F0A3FA7E
:10164000DFF8E891D9F8000000F00701E8B2804621
:10165000A94208D2014689F80010D9F8000000F02C
:101660000700A8427BD12068714E810729D5400729
:1016700003D5306840F4E05030602078000703D58F
:10168000306840F460403060A068A0B1802812D07B
:10169000902810D0A0280ED0B0280CD0C0280AD096
:1016A000D02808D0E02806D0F02804D04FF42071CC
:1016B00050A003F068FA3068A16820F0F0000843F9
:1016C00030602078C0073CD0594F6068083F88B12F
:1016D000012821D0022822D0032820D040F28721DF
:1016E00044A003F050FA6068012815D0022816D0F3
:1016F000032814D038688007002830DA306820F0DA
:10170000030000E02BE0616808433060FFF704FA53
:10171000074641F2883A0DE038688003ECE7386804
:101720008001E9E7FFF7F8F9C11B514502D9032011
:10173000BDE8F0873068616800F00C00B0EB810F05
:10174000F0D1D9F80010484601F00701A94208D9A4
:1017500080F80080006800F00700A84201D0012056
:10176000E6E720784FF4805540074FF4A0574FF438
:10177000C0584FF4E05914D5E06860B1A8420AD0CF
:10178000B84208D0404506D0484504D040F2C521B3
:1017900018A003F0F8F93068E16820F4E05008433D
:1017A00030602078000715D5206960B1A8420AD0C2
:1017B000B84208D0404506D0484504D04FF43371B4
:1017C0000CA003F0E0F93068216920F4604040EAA1
:1017D000C100306000F054F83168164AC1F30311BB
:1017E000515CC8401449086014480068FFF740FE87
:1017F00000209DE72E2E2F447269766572732F5359
:10180000544D3332463478785F48414C5F447269B6
:101810007665722F5372632F73746D33326634782A
:10182000785F68616C5F7263632E6300003C024006
:1018300008380240AC5100081C00002014000020B1
:101840000448054900680968044AC1F38221515CD3
:10185000C84070471C00002008380240BC510008F6
:101860000448054900680968044AC1F34231515CE3
:10187000C84070471C00002008380240BC510008D6
:10188000154810B5006810F00C01144813D043102F
:1018900004290FD008290ED10F4C241F216801F014
:1018A0003F022168490207D52068C0F38810A0FBD9
:1018B000030106E0184610BD2168C1F38811A1FBA1
:1018C00000010023FEF7F4FC2168C1F30141491C2B
:1018D0004900B0FBF1F010BD083802400024F400CC
:1018E0002DE9F84F04007DD020680F2803D9E821A6
:1018F000F5A003F048F92078DFF804B4C007ABF195
:10190000040554D060684FF480364FF4A02738B1F6
:10191000B04205D0B84203D0ED21EBA003F033F97B
:10192000F748001D0168C1F38101012908D0006852
:10193000C0F3810002280AD1DBF80000400206D57E
:101940002868800333D560680028CCD02FE0606819
:10195000B04203D1286840F480300CE0B8422868D7
:1019600003D140F480202860F4E720F48030286020
:10197000286820F480202860606860B1FFF7CCF808
:10198000064604E0FFF7C8F8801B64287DD8286865
:101990008003F7D50BE0FFF7BFF8064604E0FFF73A
:1019A000BBF8801B6428F1D828688003F7D420781E
:1019B000DFF8509380074FF0000A4FD5E06830B150
:1019C000012804D040F21F11BFA003F0DCF8206909
:1019D0001F2804D94FF49071BBA003F0D4F8C84875
:1019E000001D00E090E0016811F00C0F08D00068C5
:1019F000C0F3810002280AD1DBF80000400206D4BF
:101A00002868800714D5E06801287DD110E0E068DF
:101A1000B0B10120C9F80000FFF77EF8064604E0E7
:101A2000FFF77AF8801B0228B0D828688007F7D51E
:101A30002868216920F0F80040EAC10028600DE024
:101A4000C9F800A0FFF768F8064604E0FFF764F85D
:101A5000801B02289AD828688007F7D420780007CE
:101A60002BD5A74FA84E60697037C0B1012806D0AA
:101A70004FF4B07194A003F086F8606978B101204A
:101A80003060FFF749F8064605E014E1FFF744F837
:101A9000801B022887D838688007F7D50DE0C6F884
:101AA00000A0FFF739F8064604E0FFF735F8801B81
:101AB0000228B9D838688007F7D42078400772D553
:101AC000A0684FF0000840B1012806D0052804D0D6
:101AD0004FF4C6717CA003F056F889483C3000688A
:101AE000C0000BD486483C30016841F08051016051
:101AF00000684FF0010800F080500090834F386874
:101B0000C00511D4386800E02AE140F480703860E4
:101B1000FFF702F8064604E0FEF7FEFF801B0228EE
:101B200098D83868C005F7D5754FA0686C3701287C
:101B30000FD00528386810D020F0010038603868D0
:101B400020F004003860A068B0B1FEF7E5FF06465B
:101B50000EE0386840F00100F4E740F0040038601F
:101B6000F7E7FEF7D9FF811B41F28830814291D817
:101B700038688007F5D50DE0FEF7CEFF064606E093
:101B8000FEF7CAFF811B41F28830814291D8386844
:101B90008007F5D4B8F1000F05D059483C300168F2
:101BA00021F080510160A069002875D0012809D07A
:101BB000022807D040F2CF1143A002F0E4FFA06951
:101BC0000028F2D04E48001D0068C0F381000228B2
:101BD000A06973D0022805D0C9F860A0FEF79CFF69
:101BE00004466CE0E06938B1B0F5800F04D04FF4E2
:101BF000EC7135A002F0C7FF206A3F2804D940F2FB
:101C0000D91131A002F0BFFF606A3238B0F5BF7F52
:101C100004D94FF4ED712CA002F0B5FFA06A0228A0
:101C20000AD0042808D0062806D0082804D040F29C
:101C3000DB1125A002F0A7FFE06A801E0D2804D961
:101C40004FF4EE7120A002F09EFF4F46C9F860A04D
:101C5000FEF762FF064604E0FEF75EFF801B0228E7
:101C600029D828688001F7D4D4E907010843A16A7C
:101C7000274A490802EB0141626A41EA821108439E
:101C800094F82C1040EA0161CBF80010012038666E
:101C9000FEF742FF044605E064E0FEF73DFF001B4F
:101CA000022808D828688001F7D55BE0FEF734FFEA
:101CB000001B022803D90320BDE8F88F2AE028681A
:101CC0008001F3D44EE000002E2E2F447269766519
:101CD00072732F53544D3332463478785F48414CF9
:101CE0005F4472697665722F5372632F73746D331C
:101CF00032663478785F68616C5F7263632E63006C
:101D00000438024000004742800E47420070004005
:101D10000000FFFF0128CFD0DBF80000E26900F4EB
:101D2000800191421CD1226A00F03F01914217D1FB
:101D300047F6C071626A0140B1EB821F10D1A26AFE
:101D40004FF0FF3300F4403103EB5202B1EB024F8E
:101D500006D194F82C1000F07060B0EB016F01D048
:101D60000120A9E70020A7E710B5401EB0F1807F51
:101D700001D3012010BD4FF0E02460610F216017F6
:101D800002F0F1FE0020A06107202061002010BDBC
:101D900070B5040023D0A0693B4900283B4A3C4B66
:101DA0003C4D20681DD088420CD090420AD0984209
:101DB00008D0A84206D04FF4B97137A002F0E3FE74
:101DC000A06908B3A069B0F5807F1DD0B0F5007F91
:101DD0001AD0B0F5407F17D040F2731111E0012006
:101DE00070BD884210D090420ED098420CD0394934
:101DF000884209D03849884206D0A84204D040F22F
:101E0000771125A002F0BFFEA06838B1B0F5805F61
:101E100004D040F2791120A002F0B5FEE06938B19B
:101E2000B0F5004F04D04FF4BD711BA002F0ABFE23
:101E300094F83D00002520B984F83C50204600F07D
:101E40004DF8242084F83D002068C16821F4005139
:101E5000C160204600F0B8FB2068016921F4904180
:101E600001612068416921F02A0141612068C1684F
:101E700041F40051C1602564202084F83D0084F8BD
:101E80003E00002070BD00000010014000440040F2
:101E900000480040001401402E2E2F4472697665E0
:101EA00072732F53544D3332463478785F48414C27
:101EB0005F4472697665722F5372632F73746D334A
:101EC00032663478785F68616C5F756172742E6316
:101ED00000000000004C00400050004010B586B0EB
:101EE000044614216846FEF7F5FA14492068884232
:101EF00021D113480021026842F0100202600068FC
:101F000000F0100005900E481438026842F00102FB
:101F10000260006800F0010005904FF4C06000907E
:101F20000220CDE9010103200390072004906946B7
:101F30000448FEF713FC06B010BD0000001001407D
:101F40004438024000000240FEE700002DE9F04165
:101F500086B08846044614216846FEF7BBFA20681E
:101F6000016821F0010101602046FEF7DBFD112030
:101F7000019000203A4F4FF4807602906946009617
:101F80003846FEF7EBFB7500694638460095FEF7CC
:101F9000E5FB012229463846FEF788FD012231463D
:101FA0003846FEF783FD434601223146384603F0AA
:101FB000D8F8434601222946384603F0D2F80022D9
:101FC00029463846FEF772FD434600222946384628
:101FD00003F0C7F8002231463846FEF767FD434656
:101FE00000223146384603F0BCF80122314638461B
:101FF000FEF75CFD434601223146384603F0B1F856
:10200000012229463846FEF751FD43460122294662
:10201000384603F0A6F81220CDE90060694638463C
:10202000FEF79CFB694638460095FEF797FB206853
:10203000016841F40041016000BF2068016821F49B
:102040000041016000BF2068016841F001010160AA
:1020500000BF2046FEF7B0FD06B0BDE8F0810000ED
:102060000004024001684A69D24352050FD46FF45C
:1020700080624A61002140F8301F20224273817340
:10208000026942F0040202610173012070470020DE
:10209000704700002DE9F84F0446C06A1D4693467C
:1020A0000F4621680A6842F480620A60082807D057
:1020B000012805D010F5803F02D0206B112804D1F3
:1020C0002068016841F4807101604FF001195B469E
:1020D000002249462046009500F044F94FF400786C
:1020E00040B120680068C00501D5C4F840800320D5
:1020F000BDE8F88F2069DFF884A0B0F5804F0FD0DD
:102100000620216800EAD71646F0F00008612B4649
:102110005A460AF10601204600F058F958BB03E080
:10212000F8B240F001001CE02168F8B208612B46CB
:102130005A465146204600F049F9E0B92068416905
:1021400081690091016841F4807101605B46002261
:1021500049462046009500F005F90028C1D146F017
:10216000F100216808612B465A465146204600F08E
:102170002DF90028BCD00120BAE7000002000100C0
:10218000F8B50446C06A1E460D461746082807D013
:10219000012805D010F5803F02D0206B122804D111
:1021A0002068016841F480710160134600224FF0FD
:1021B00001112046009600F0D5F840B12068006873
:1021C000C00502D54FF4007020640320F8BD2069DB
:1021D000B0F5804F0ED00620216800EAD51040F0FF
:1021E000F000086133463A460B49204600F0EEF80D
:1021F00078B902E005F0FE0000E0E8B2216808616D
:10220000054933463A46891F204600F0DFF800288A
:10221000DCD00120F8BD0000080001002DE9F84FD6
:102220000446006889460B9E01689846174641F4AB
:10223000806101602068016841F48071016000964E
:102240004FF0011B0022594620460A9B00F08AF8F5
:102250004FF4007A40B120680068C00501D5C4F889
:1022600040A00320BDE8F88F216809F0FE00086156
:102270003346284920460A9A00F0A8F8F0BB2068A7
:10228000416980690090324620460A9900F01FF9A2
:1022900040B1206C04283AD12068016841F40071F3
:1022A000016034E0FDB2B8F1010F09D02168380AAD
:1022B0000861324620460A9900F009F90028E8D161
:1022C00020680561324620460A9900F000F900288E
:1022D000DFD12068016841F480710160009600221E
:1022E000594620460A9B00F03DF80028B3D12168EA
:1022F00009F0FF0040F00100086100E007E033460C
:10230000044920460A9A00F061F80028AAD001206A
:10231000A8E700000200010070B516460D4604460D
:102320000DE02046FFF79EFE08B1012070BD681C3D
:1023300005D0FEF7F1FB801BA84207D835B1206815
:102340004069C0434007ECD4002070BD002044F831
:10235000300F20216173A073216941F020012161B8
:102360002073E2E72DE9F0471D4690460E460446ED
:10237000C1F30747DDF8209008E0681C06D0FEF79F
:10238000CBFBA0EB0900A8420FD875B12068012F44
:1023900018D0806926EA00000004000C14D0002048
:1023A0004045EAD00020BDE8F087002044F8300F17
:1023B00020216173A073216941F020012161207304
:1023C0000120F0E74069E5E70120E9E72DE9F04762
:1023D000984615460E4604464FF000094FF0200A75
:1023E000C1F3074723E020684069C043400515D486
:1023F0002068016841F40071016021686FF4806019
:102400004861C4F8309084F83DA084F83E90216C77
:1024100041F00401216484F83C901EE0681C06D061
:10242000FEF77AFBA0EB0800A8420AD84DB120685D
:10243000012F15D0806926EA00000004000C0DD0A1
:10244000D1E744F8309F84F80DA084F80E902169FC
:1024500041F02001216184F80C900120BDE8F08753
:102460004069E8E72DE9F04116460D46044600278D
:102470004FF0200817E04069C043C0060DD454F85F
:10248000301B6FF01000486144F80D7B04F81D8983
:10249000A777206A2062277717E0FEF73DFB801BB5
:1024A000A84208D83DB120684169C9434906E2D431
:1024B0000020BDE8F08144F8307F84F80D80A773D8
:1024C000206940F02000206127730120F1E770B5FA
:1024D00016460D4604460DE02046FFF7C3FD08B141
:1024E000012070BD681C05D0FEF716FB801BA842BA
:1024F00007D835B120684069C0430006ECD40020FD
:1025000070BD002044F8300F20216173A073216951
:1025100041F0200121612073E2E7FEE7FEE770470A
:102520007047FEF783BF000030B593B03021684696
:10253000FDF7D0FF14210CA8FDF7CCFF1C480025A7
:10254000016841F080510160006800F080501190F6
:102550001848016841F4804101600068022400F4D9
:102560008040119001200090000401908001CDE98D
:10257000064008AA0420542182E813000B90684604
:10258000FFF7AEF908B172B6FEE70CA90F2081E89B
:1025900031004FF48050CDE90F0502210CA8FFF760
:1025A0002DF8002801D072B6FEE713B030BD000050
:1025B00040380240007000400248016841F4700158
:1025C0000160704788ED00E070B5044640685449EA
:1025D000884204D940F6566152A002F0D4FAE0686D
:1025E00038B1B0F5005F04D040F657614DA002F05D
:1025F000CAFA206950B1B0F5806F07D0B0F5C06F4E
:1026000004D040F6586147A002F0BDFA60694FF669
:10261000F371084200D120B940F6596141A002F09F
:10262000B2FA20680169E26821F440511143016166
:10263000A1682069E2690143606910430143206891
:10264000C26849F20C639A430A43C2602068416938
:10265000A26921F4407111434161414920688842D7
:1026600002D04049884202D1FFF7FAF801E0FFF7B3
:10267000E7F8E2690023192164253226B2F5004FFC
:10268000626828D0A0FB0101930F9200FDF710FEB5
:102690000146B0FBF5F06FF01802504301EB8000EB
:1026A00006EB0010B0FBF5F000F0F002B1FBF5F026
:1026B00002EB0012B1FBF5F06FF01803584301EB89
:1026C000800006EB0010B0FBF5F000F00F00216871
:1026D0001044886070BDA0FB010192185B41FDF7BA
:1026E000E7FD0146B0FBF5F00201B1FBF5F06FF03C
:1026F0001803584301EB800006EBC000B0FBF5F077
:1027000000F0F80002EB4002B1FBF5F0584301EB9A
:10271000800006EBC000B0FBF5F000F00700D6E744
:10272000A037A0002E2E2F447269766572732F5346
:10273000544D3332463478785F48414C5F44726977
:102740007665722F5372632F73746D3332663478EB
:10275000785F68616C5F756172742E6300000000C1
:102760000010014000140140FEE700007CB5054662
:10277000002095F806210C46012A0AD0022A35D0FD
:10278000032A17D101AB6A460121284600F0EDF972
:1027900035E001AB6A460121284600F0E6F90099D0
:1027A000B1F57F0F06D9002804D124B1234928466A
:1027B00001F06BFD7CBD0422FF21284600F003FFE1
:1027C000044600227021284600F0FDFE40EA04067F
:1027D0000022FF21284600F0F6FE40EA060400220F
:1027E0008021284600F0EFFE20437CBD01AB6A4605
:1027F0000121284600F0B9F901990029F5D00028F7
:10280000F3D1002CD2D10422FF21284600F0DBFEB8
:10281000064600227021284600F0D5FE40EA060454
:102820000022FF21284600F0CEFE40EA04060022E6
:102830008021284600F0C7FE30437CBD13010020F4
:10284000F8B50646002401220B21304600F0BBFEFD
:10285000074600220B21304600F0B5FE40EA07058E
:102860006A461321304600F042FB641C9DF80010BC
:102870002843E4B2490704D0032C04D20028E2D054
:10288000F8BD032CFCD36FF00B00F8BDF0B59FB082
:1028900004460022882100F096FE002684F81C6180
:1028A0004FF47A70A4F87E016748A661C4F800016D
:1028B0006946204600F0D4F805002CD14FF0966010
:1028C0008DF8006016908DF801604BF23330CDE941
:1028D0000F605E4817904FF4003011904FF0617018
:1028E00018905B4812905B4819905B4813905B48C6
:1028F0001A904FF4202014904FF0FA701B904FF470
:10290000702015904FF0C8701C907822694604F131
:102910000800FDF7ADFD6420A4F860014FF461707C
:10292000A4F862014FF4FA70A4F864014FF4206037
:10293000A4F86801012784F87C713A46802120467A
:1029400000F041FE05430122FF21204600F03BFE3E
:10295000054300221146204600F035FE05431EAA1D
:102960009121204600F0C3FA05439DF8780084F8D1
:10297000660101220021204600F025FE05430022C9
:10298000FF21204600F01FFE054300228021204643
:1029900000F019FE28430025002852D1A9B20122D7
:1029A000204600F012FC6D1C062DF5DB002848D1F6
:1029B00000220221204600F008FC002841D100221C
:1029C0000321204600F001FC00283AD10022042116
:1029D000204600F0FAFB002833D1002205212046D2
:1029E00000F0F3FB00282CD14FF490120021204678
:1029F00000F02BFC002824D14FF480420121204616
:102A000000F023FC00281CD14FF40C1202212046B8
:102A100000F01BFC002814D100220321204600F006
:102A200014FC00280DD1FF2084F85C01024601212E
:102A3000204600F0C8FD84F85E71002801D184F8BA
:102A400041611FB0F0BD0000A470090000004C04FB
:102A5000CCCC03000000EE02CC4C070000002602A4
:102A600070B506460D46007A01F8080B304600F0B6
:102A700050F800283FD1287305F11001304600F0CE
:102A8000E9F9002837D105F11401304600F0F4F8D7
:102A9000002830D1002401E000282CD105EB84026D
:102AA000A1B23046243200F086F8002823D12A193A
:102AB000A1B23046183200F072F8641C062CEBDB31
:102AC000002818D105F17401304600F0A8F900285B
:102AD00011D1291D304600F0CDF800280BD100217E
:102AE00006EB810205EB8103546CDC63126E491C1A
:102AF0009A650729F4DB70BD10B50C460A4609211A
:102B000000F0F5F9002803D1217801F001012170CE
:102B100010BD7CB50C4605466A46F82100F03AFA2D
:102B200000280ED101AA0421284600F004FA00284A
:102B300007D1BDF800202AB10199B1FBF2F1216063
:102B400029617CBD2168FBE738B50C466A46132134
:102B500000F0CDF99DF8002002F0070112F0180FE7
:102B6000216001D06FF0050038BDF8B515461C4650
:102B700006466A460E2100F00DFABDF80010090560
:102B8000C9082960002809D16A460C21304600F0A6
:102B900001FABDF800100905C9082160F8BD034617
:102BA0000020062902D3001F002102E0194491F8F9
:102BB0002010117070472DE9F843054600200E469D
:102BC00017468046062E2FD2DFE806F003051113C4
:102BD0001515EC6A2FE06A464421284600F0DAF920
:102BE00010B9BDF800104C024FF001080CE06C6BFE
:102BF00021E0AC6B1FE06A466421284600F0CAF968
:102C000010B9BDF800104C0200280BD1B8F1000F2C
:102C100011D005EB8601AA194CB13C60CC620121B0
:102C200082F82010BDE8F8836FF00300FAE7C96A64
:102C300039600021F4E73C60F4E77CB50C4690F87D
:102C400006110025012604290AD06A46142100F045
:102C50004EF900280BD19DF80010C90706D007E0F7
:102C600001A9FFF771FF0199042901D025707CBDEE
:102C700026707CBD01F04BB901F0ABB9F0B58DB059
:102C80000C4605460C2309AA142100F0ADF90600F4
:102C90007ED1844684F816C0C4F800C09DF82F0089
:102CA0009DF82E10C4F804C000EB01209DF82B10F5
:102CB0009DF82A204FF47A7E01EB02210904CA090B
:102CC000E2609DF82D109DF82C3080B201EB0321BD
:102CD0000904C90921619DF827109DF8263001EBF0
:102CE00003218BB2A382B5F87E119DF8246095F87C
:102CF0005D7171451DD0414301F5FA7191FBFEF004
:102D0000298B95F814E080B289B2BEF1000F10D083
:102D10005943B2EB212F06D117B142F2B82008E097
:102D200048F6E02005E05043A2EB2121B0FBF1F092
:102D300080B227B1810821818001E07502E0208105
:102D400084F817C00CA8CDE900403146284601F0B0
:102D50005AF9060025D19DF83000207605F1800152
:102D60001C220D4602A8FDF783FB2089ADF8100058
:102D7000E07D8DF81F006089ADF812006068039057
:102D8000E068059020690690A08AADF81C0000E07C
:102D900007E0207E8DF820001C2202A92846FDF7BE
:102DA00067FB0DB03046F0BD38B5054600200C4637
:102DB0008DF800006A460121284600F098F80028A6
:102DC0002AD123469DF800200021284602F026F94A
:102DD000002821D1A31C9DF800200121284602F0E3
:102DE0001DF9002818D1631C9DF8002002212846F7
:102DF00002F014F900280FD1E31C9DF800200321F4
:102E0000284602F00BF9002806D1231D9DF800206A
:102E10000421284602F002F938BD01F009BA38B59C
:102E20000C4605466A46012100F061F800280BD1E6
:102E30009DF8001085F85C11090601D5012100E01C
:102E40000021217085F87C1038BD02460020127DDB
:102E50000A70704738B50D4604466A46202100F0D6
:102E600099F8002807D1BDF8001029B1CA002A60DE
:102E70000121A261217538BDA16929600021F9E70E
:102E8000012301F0A4BA01F0C2BA70B5047A054674
:102E900014B900F060FA10B9284601F043FA50EA7C
:102EA000040102D1032185F85E1170BD70B50C4696
:102EB0000546002100F0CCF8002810D12846FFF785
:102EC000E4FF00280BD121462846FFF7D7FE002853
:102ED00005D12846BDE870400021FFF7B1BC70BDA8
:102EE00010B500240220FDF75BFB204610BDF7B5AE
:102EF00082B00A2700971646044690F88411D0F84D
:102F00008001012303AAFEF78BF86FF0130550B977
:102F1000009794F8841101233246D4F88001FDF71C
:102F20008FFF002805D00A21D4F88001FFF70EF8A2
:102F3000284605B0F0BD37B582B004460A2000909F
:102F4000154694F88411012303AAD4F88001FEF7F2
:102F500067F840B10A21D4F88001FEF7F7FF6FF05F
:102F6000130005B030BD042301AA9DF80C102046C3
:102F700000F03AF89DF804100A029DF8051011437C
:102F80000A029DF8061011430A029DF8071011432A
:102F90002960E6E737B582B004460A20009015465E
:102FA00094F88411012303AAD4F88001FEF738F8BD
:102FB00040B10A21D4F88001FEF7C8FF6FF013007A
:102FC00005B030BD022301AA9DF80C10204600F088
:102FD0000BF89DF804104FF6FF7202EA01229DF8EB
:102FE000051011432980EBE7FFB583B00A25009552
:102FF0001E461746044690F88411D0F8800101233C
:1030000004AAFEF70DF840B10A21D4F88001FEF7BA
:103010009DFF6FF0130007B0F0BDB0B20097CDE98F
:10302000010594F8841101239DF81020D4F8800143
:10303000FEF78CF80028EED00A21D4F88001FEF7C4
:1030400085FF6FF00200E6E74A088A2100F0BBBA6C
:103050000246002003290BD003DC49B1012904D129
:1030600006E0142904D0152902D06FF0070070473C
:10307000117270472DE9F0411D46069E044619B1B4
:103080006FF00900BDE8F081142A08D0152A0FD08E
:10309000052D74D2DFE805F07476787A7C002EB1C5
:1030A0000122BDE8F041842100F08DBA1022F8E73A
:1030B0000122FF2100F087FA064600221146204631
:1030C00000F081FA40EA06050022FF21204600F0C8
:1030D0007AFA40EA050701228021204600F073FABF
:1030E00040EA070602228521204600F06CFA40EAF9
:1030F00006050422FF21204600F065FA40EA050695
:103100000022CD21204600F05EFA40EA0605112299
:10311000CC21204600F057FA40EA05060722FF219D
:10312000204600F050FA40EA06050022BE21204663
:1031300000F049FA40EA05060622FF21204600F089
:1031400042FA40EA06050922CC21204600F03BFA6B
:1031500040EA05060022FF21204600F034FA40EA4A
:1031600006050122FF21204600F02DFA40EA05065F
:1031700000221146204600F026FA304382E71FE085
:10318000002206E0012204E0022202E0032200E025
:1031900004220A21204600F016FA0028EED196B14A
:1031A0001023EF228421204600F0F8F90028E5D111
:1031B00084F806512046BDE8F0410021FFF740BBEE
:1031C0006FF00A005EE70023EBE72DE9F0410446CB
:1031D00000200D461646071F034601460246062DEF
:1031E0002FD256B104EB8501CB6A0121062D28D2DE
:1031F000DFE805F005080F1215180122F6E784F83C
:10320000201017E0C3F34F224421204600F0F5F9C7
:103210000EE084F822100DE084F823100AE0530039
:10322000FE2201E01301EF226021204600F0B6F9F2
:10323000002804D1611936B1012281F82020BDE8AF
:10324000F0813846FBE70022F7E770B5144600220C
:10325000431800EB810593F82030DBB1C4F34F2312
:10326000062914D2DFE801F00305080A0C0CC46239
:1032700010E01A46442105E044630BE0846309E052
:103280001A46642100F0B9F9020003D003E06FF0A0
:10329000030200E0EC62104670BD01F081BA01F05B
:1032A000DDBA01F0EBBA2DE9F8430746002090465D
:1032B0000E468DF800006A4601213846FFF717FEDA
:1032C0009DF800400500204630D1291FB8F1010FBC
:1032D00006D0052E29D2DFE806F0191C1F22250092
:1032E000052E22D2DFE806F00306090C0F0044F099
:1032F00010041BE044F0280418E044F0040415E036
:1033000044F0400412E044F080040FE004F0EF04C5
:103310000CE004F0D70409E004F0FB0406E004F03C
:10332000BF0403E004F07F0400E00D4684420DD0AA
:1033300065B922460121384600F045F9050005D15E
:1033400087F85C413846F968FFF7A7FF2846BDE8D3
:10335000F88301F0E6BAF8B501250646047A2A4654
:10336000802100F030F90122FF21304600F02BF9D6
:1033700000221146304600F026F996F86621912188
:10338000304600F020F901220021304600F01BF900
:103390000022FF21304600F016F90022802130463D
:1033A00000F011F93CB10425012C26D0032C2ED0BD
:1033B0006FF00700F8BD01220021304600F003F94C
:1033C0008DF800500028F5D100244FF4FA6705E08D
:1033D00024B16A4600213046FFF789FD9DF80020A0
:1033E000641C25EA0201014304D0BC42E2D36FF021
:1033F0000600F8BDBC42EBD3F9E718B9012130460D
:10340000FFF7B4F9022208E086F85E51F8BD18B95A
:1034100001213046FFF7AAF904220021304600F0CE
:10342000D2F80028F0D0F8BD70B5A6B004467821D7
:1034300001A8FDF74FF800258DF87C50ADF88850B5
:103440008DF88C5001212046249500F0CAFA94F89A
:10345000402194F83F11012A06D802D1202903D82F
:1034600008E03AB90C2905D923AA24A9204600F07E
:10347000CEFF02E0204601F001FA474900287DD145
:1034800094F87C0108B9D4F87811204600F0FDFECC
:1034900000287FD100220423114620460095FFF723
:1034A000E9FD002876D10122FF21204600F08BF8AB
:1034B000064622AA84212046FFF76CFD40EA060555
:1034C0000022FF21204600F07EF8284362D1BDF89B
:1034D000880001A90001C4F800012046FFF7C0FAE6
:1034E000002857D11FA92046FFF706FB002851D11D
:1034F0009DF87C0084F85D01782201A904F10800A0
:10350000FCF7B6FF1FAA01212046FFF7F0FC0028B8
:1035100040D19DF87C0084F85C01002211462046D1
:10352000FFF7C1FE002835D1002202212046FFF717
:10353000BAFE00282ED1032084F85E0120AA0021C3
:103540002046FFF76AFC002824D19DF8800084F80B
:10355000140120AA01212046FFF75FFC002819D1A1
:103560009DF8800084F80C0121AA0321204601F077
:10357000BAFB00280ED1219821AA00E00AE0C4F885
:1035800010010421204601F0AEFB002802D1219950
:10359000C4F8081126B070BD20000020F8B515460B
:1035A0001C460E4607466A46FFF7A1FC002809D1D3
:1035B0009DF8002031462A4022438DF800203846ED
:1035C00000F001F8F8BD1CB504468DF804108DF824
:1035D00005200A20009094F88411022301AAD4F84F
:1035E0008001FDF71DFD002806D00A21D4F88001D6
:1035F000FEF7ACFC6FF002001CBD1CB504468DF854
:103600000620100A8DF805000A208DF8041000909D
:1036100094F88411032301AAD4F88001FDF700FD7A
:10362000002806D00A21D4F88001FEF78FFC6FF045
:1036300002001CBDF8B51D46134604466FF0020695
:103640001F2D01D33046F8BD0C482A4600F8011B57
:103650001946FCF7C8FE0A2000906D1CABB294F826
:103660008411064AD4F88001FDF7DAFC0028EAD07C
:103670000A21D4F88001FEF769FCE3E74405002045
:10368000F0B5AFB00C4600212C912D9116460EA935
:10369000FFF7E6F905461D98A04201D3249B31E0CF
:1036A0002398A04201D82A9B2CE007222DA92CA800
:1036B000CDE90A24CDE90C01282221A96846FCF7AE
:1036C000D7FE1DAF97E80F0001F0BCFADDE92C0131
:1036D0000EAF884203D107EB8000836D12E007EB49
:1036E000800307EB8101DA6BC86B9B6D896D90429B
:1036F00008D0821A5B1A120AB3FBF2F2001B000A0E
:1037000000FB0213180C30602FB02846F0BD01EB0F
:10371000C10140F277600902A1FB0001704700007F
:103720002DE9F74F86B00446806903908846086902
:103730004FF47A7148434FEA104ADFF8D4914FF4BE
:10374000481502AA4146204600F04DFD03AA414615
:10375000204600F056FD83464FF47A710298039F8D
:10376000484300F50040060C4F43AF4200D92F46B6
:10377000BBF100007ED1D4F80801009094F80C5100
:1037800001462A46204600F0C9F80490D4F81001FA
:103790000190014694F81421204600F0BFF801463C
:1037A0000320082D00D10220049A11444143C8028D
:1037B0004FF47A7100F5FA70B0FBF1F040F27762E5
:1037C000504300F5FA70B0FBF1F202988030000A25
:1037D00000FB02F180310D0A000202900EB115B11A
:1037E00002E048468BE001254FEA0A40B0FBF6F0C4
:1037F0004849884200D908464FF4167100FB01FA87
:1038000005EB4500800000F02BFD40000490B8F867
:103810000820414879424243300400EB41004FF414
:103820007A7700F5FA70B0FBF7F1781000EB0640FC
:10383000B0FBF7F00902B1FBF0F0002800DA4042DB
:10384000010298F8180010B14FF480300EE041F2F8
:103850005C20B2FBF0F0C1F58031414301F500413D
:10386000080C00F5803040084043800B4FF448714D
:10387000484300E048E000F50040000C10FB00F178
:103880000AF50040000C4043084400F0E9FC000445
:1038900064213230B0FBF1F10498B1FBF0F040F656
:1038A000B531484341F2883108444900B0FBF1F694
:1038B0004FF47040864200D90646DDE90001084415
:1038C00000F5FA70B0FBF7F04FF4C81101EB5001AE
:1038D000B1FBF0F000F0C4FC000200F5FA70B0FBA0
:1038E000F7F076434043304400F0BAFC4FF47A716D
:1038F0004843002D3FF475AF48453FF672AF089935
:103900000860C4F86C01584609B0BDE8F08F0000AB
:10391000AE878F02666666009A99060000B50B4670
:103920001146FFF7F4FE4FF47A7100F5FA70B0FB20
:10393000F1F04B4303EB5001B1FBF0F000BD00B5DB
:103940000B461146FFF7E3FE4FF47A7100F5FA706B
:10395000B0FBF1F0434303F5FA73B3FBF1F000BDA4
:10396000C1B2000A8140481C70474000801CC0B2B0
:103970007047F8B5074600228321FFF724FE0400B4
:1039800010D100254FF4FA666A4683213846FFF7C6
:10399000AEFA04469DF8000020430AD0B54201D398
:1039A0006FF00604012283213846FFF70CFE204306
:1039B000F8BD6D1CB542E7D3F2E70022114648B1CD
:1039C000401E02E04008491C89B2020AFAD161F3A4
:1039D0001F2082B210467047FF2101EB5000C0B299
:1039E00070472DE9F04F91B0002704464FF4C850BE
:1039F0000A970C9709970B970F9094F81C510E4655
:103A0000BB46BA46072D7ED0012280212046FFF713
:103A1000DAFD07460122FF212046FFF7D4FD40EAE8
:103A20000708002211462046FFF7CDFD40EA0807AF
:103A30000622FF212046FFF7C6FD40EA07086A4636
:103A400083212046FFF753FA40EA08079DF800005B
:103A5000832140F004022046FFF7B5FD40EA070845
:103A60000722FF212046FFF7AEFD40EA08070122AA
:103A700081212046FFF7A7FD40EA07082046FFF70F
:103A80002FFA40EA0809012280212046FFF79BFD1A
:103A900040EA0907F00755D0E80753D16B2294217B
:103AA0002046FFF790FD40EA07082046FFF761FF38
:103AB00040EA080701AA90212046FFF73CFA40EAB5
:103AC000070801982422C0F30621C0F3C03B0C91E3
:103AD00094212046FFF777FD40EA08072046FFF7CC
:103AE00048FF40EA070801AA90212046FFF723FA81
:103AF00040EA08070198010E8DF81C10010C8DF8A2
:103B00001D10010A00E0FEE18DF81E108DF81F0067
:103B1000252294212046FFF756FD40EA070820465B
:103B2000FFF727FF40EA080901AA90212046FFF786
:103B300002FA40EA09070198010E8DF82010000CE6
:103B40008DF82100B0077ED5A8077CD402229421ED
:103B50002046FFF738FD40EA07082046FFF709FF37
:103B600040EA08070DAA90212046FFF7C0F940EA75
:103B700007087B2294212046FFF725FD40EA08072D
:103B80002046FFF7F6FE40EA07080EAA90212046DD
:103B9000FFF7ADF940EA0807772294212046FFF7A6
:103BA00012FD40EA07082046FFF7E3FE40EA080757
:103BB00001AA90212046FFF7BEF940EA07080198C4
:103BC0007822410E8DF80810C0F386418DF8091057
:103BD000C0F3C6218DF80A10C0F306110007400E8D
:103BE0008DF80B108DF8000094212046FFF7EBFCB8
:103BF00040EA08092046FFF7BCFE40EA090701AA8F
:103C000090212046FFF797F940EA07089DF8001039
:103C1000019801EB50718DF80C10C0F386518DF8AE
:103C20000D10C0F3C6318DF80E10C0F306218DF8CB
:103C30000F10C0F34601C007400E8DF810108DF82C
:103C40000000792200E055E094212046FFF7BBFCFC
:103C500040EA08072046FFF78CFE40EA070801AA61
:103C600090212046FFF767F940EA08099DF8001007
:103C700001987A2201EB90618DF81110C0F3C641D2
:103C80008DF81210C0F306318DF81310C0F34611F1
:103C90008DF81410C006400E8DF8000094212046C7
:103CA000FFF791FC40EA09072046FFF762FE40EA71
:103CB000070801AA90212046FFF73DF940EA0807CE
:103CC0009DF80010019801EB90718DF81510C0F36C
:103CD000C6518DF81610C0F306418DF81710C0F3C9
:103CE00046218DF81810C0F386008DF819000020C9
:103CF0008DF81A0070077ED568077CD47B2294214A
:103D00002046FFF760FC40EA07082046FFF731FE37
:103D100040EA080709AA90212046FFF70CF940EA7B
:103D200007087C2294212046FFF74DFC40EA080753
:103D30002046FFF71EFE40EA07080AAA9021204607
:103D4000FFF7F9F840EA0807732294212046FFF7AD
:103D50003AFC40EA07082046FFF70BFE40EA080756
:103D600001AA90212046FFF7E6F840EA07080198EB
:103D7000742200064FEA104A94212046FFF723FCE4
:103D800040EA08092046FFF7F4FD40EA090701AAC6
:103D900090212046FFF7CFF8019940EA07084AEA48
:103DA00011600B90752294212046FFF70CFC40EA2D
:103DB00008092046FFF7DDFD40EA090701AA902126
:103DC0002046FFF7B8F840EA070801987622000677
:103DD0004FEA104994212046FFF7F5FB40EA080717
:103DE0002046FFF7C6FD40EA070801AA90212046B9
:103DF000FFF7A1F800E004E0019940EA080749EA6A
:103E0000116A002281212046FFF7DDFB40EA070806
:103E10000622FF212046FFF7D6FB40EA08096A4642
:103E200083212046FFF763F840EA09079DF8000068
:103E3000832100F0FB022046FFF7C5FB40EA07089C
:103E40000122FF212046FFF7BEFB40EA08070122BE
:103E500000212046FFF7B7FB40EA07090022FF21B7
:103E60002046FFF7B0FB40EA0908002280212046E7
:103E7000FFF7A9FB50EA080745D1072D43D0F0070B
:103E80000FD0E8070DD10C9884F83F0184F840B1B9
:103E9000002007A923180A5C401C83F85621062835
:103EA000F8DBB0070ED5A8070CD49DF8340084F8D1
:103EB0001D019DF8380084F81E0104F21F1002A9AC
:103EC000FCF76DFA700719D5680717D40998C4F87C
:103ED00044010A98C4F848010B984002C4F84C0108
:103EE0000020BAF1000F08D00F99AAEB01004FF49F
:103EF0007A1148430014404200B2606035438DF8A7
:103F0000005084F81C5111B03846BDE8F08F30B530
:103F100085B005464FF4FA6002900020039040F609
:103F2000363008600C4669462846FEF73DFF0028FB
:103F30004DD19DF8001029B99DF8011011B99DF8D7
:103F4000021011B302AA0221284600F0CCFE00287C
:103F50003DD19DF8001029B10299226801F24E214D
:103F6000114421609DF8021031B10299226801F2DA
:103F7000B22102EB410107E09DF8011029B102993D
:103F8000226801F52571114421609DF8031061B18B
:103F900003AA0321284600F0A6FE0399226801F532
:103FA000257111442160002811D19DF8041061B1E0
:103FB00004AA0421284600F096FE0499226801F222
:103FC000262111442160002801D12168E96005B053
:103FD00030BD38B50C4640F2FF756A462821FEF721
:103FE000D9FF00280ED1BDF80010C1F30B02ADF8C7
:103FF0000020AA424FF0FA0101DDA2F5805212FB27
:1040000001F1216038BD2DE9FF4F8BB04FF0000961
:10401000DDE918A58DF800900646C8464F468DF894
:1040200004908DF808908DF80C90ADF81090C1F3C5
:10403000C304CDF81490BCB1052C15D0072C13D0B7
:104040000C2C11D00D2C0FD00E2C0DD00F2C0BD012
:10405000002083466A4600213046FEF7A0FD9DF809
:104060000010F9B110B123E00120F2E706AA514691
:104070003046FFF755FBD8B905AA3046DAF81010DC
:10408000FFF7FEFAA0B90598AAF80A0007AA0021CE
:104090003046FEF790FD079921B1069A8A4201D970
:1040A0004FF0010920B902AA02213046FEF777FD40
:1040B0009DF8081011B338BB08AA02213046FEF75C
:1040C0007AFD80B90122FF213046FFF77CFA50B912
:1040D00004AAB6213046FEF75DFF20B90022FF2179
:1040E0003046FFF770FABDF810104902C6F8741197
:1040F000089A1AB1914201D94FF0010820B903AAD8
:1041000003213046FEF74BFD9DF80C1091B198BB92
:104110000E9820B10D9801020E98B1FBF0F0824686
:1041200009AA03213046FEF746FD099911B18A45D7
:1041300000D2012700BBBBF1000F01D0FF2022E01D
:10414000012C10D0022C0ED0032C0CD0062C0CD03D
:10415000092C0AD0082C04D00A2C02D0B8F1000F88
:1041600005D003200FE005200DE004200BE0042C17
:1041700000D017B1022006E006E0B9F1000F01D02F
:10418000012000E00020287001AA01213046FEF73E
:1041900006FD002824D19DF8001011B15FEA090145
:1041A00000D0012186F82610042C14D09DF80410AC
:1041B00089B1002186F827109DF8081011B15FEA37
:1041C000080100D0012186F828109DF80C1001B1DB
:1041D0001FB1012102E00121ECE7002186F829103E
:1041E0000FB0BDE8F08F38B51446CA6822606A4641
:1041F00000F007F8002803D12168009A11442160DB
:1042000038BDF8B5064600200D46106014466946D4
:104210003046FEF71AFE002809D19DF8001000294B
:1042200005D0A98AB26951438031090A2160F8BDDD
:1042300038B5144621B1012905D06FF003010DE016
:104240006A46502101E06A467021FEF750FE0100E7
:1042500004D19DF80000FFF788FB2070084638BDA8
:10426000024600204FF0804100E089089142FCD8CE
:1042700008E04318934203D8D21A01EB500000E043
:10428000400889080029F4D17047F8B50646002097
:104290000D460446071F12E0641CFF2B05D0042BBB
:1042A0000CD8295D00206A4635E0295D641C61B1A7
:1042B000012912D0022919D003291FD038462B5DBD
:1042C000002B01D00028E7D0F8BD295D641C2A5DD1
:1042D00002EB0121A6F8601106E0295D641C2A5D4D
:1042E00002EB0121A6F86211641CE8E7295D641C59
:1042F0002A5D02EB0121A6F86411F5E7295D641C33
:104300002A5D02EB0121A6F86811EDE715F804C05B
:1043100002F800C0401C641C9842F7DB3046FFF7EF
:1043200089F9CCE7F8B5064600208DF80000044670
:104330004FF4FA6569463046FEF77FFC002807D146
:104340009DF80010012903D0641CAC4201D3C01FAA
:10435000F8BD3046FEF7C4FDECE72DE9F04385B02B
:104360001D0091460E4607464FF0000401D097F815
:104370005C4102220121FFF726F94FF0000838B90D
:104380000021384600F05BF910B9B9F1010F11D0E6
:1043900086F8008000280AD1002D08D0224601218D
:1043A0003846FFF710F9002801D187F85C4105B0C5
:1043B000BDE8F083012004A9CDE90016CDE9028013
:1043C000424601461346384600F08FF9E2E72DE9F0
:1043D000F0411E461746054690F85C4100233246E0
:1043E00000F049F9002810D100233246394628460A
:1043F000FFF7B3FF002808D1224601212846FFF726
:10440000E2F8002801D185F85C41BDE8F0812DE992
:10441000F74F06462C2090B00022079208920D908C
:104420008DF838208DF83C200C92B6F868814FF05A
:10443000B40A4FF0030B10464FF006091746331825
:104440000021401C83F850114845F8D30122FF2178
:104450003046FFF7B8F804007AD100224F213046E9
:10446000FFF7B1F80400F7D12C224E213046FFF7B8
:10447000AAF80400F0D10022FF213046FFF7A3F88C
:104480000400E9D15246B6213046FFF79CF80400FB
:10449000E2D1002280213046FFF795F80400DBD1FD
:1044A00000230FAA0EA93046FFF791FF0400D3D1D5
:1044B00007A9CDF800900790CDE903B1CDE901A09F
:1044C00006F5A8739A1DCDE905320146304600F085
:1044D0005BFB04003CD109A93046079D00F06CFD50
:1044E000040036D1BDF82410414532D9014603E01D
:1044F0003218401C82F850114845F9D300E06D1C79
:104500000AEB050000F0D0FC10B90D988542F6D3F7
:1045100001200D9007A8CDF80090CDE903B0CDE9BA
:1045200001A5DDE905320121304600F02DFB040034
:104530000ED109A93046079D00F03EFD04007AD156
:10454000BDF82410414508D901205F460C9004E0D5
:1045500030E000200D90002C6DD1BDF824104145B5
:1045600059D20D980C905F464A460AA80599FBF768
:104570007FFFBDF82410B1EB080000D54042834610
:104580000020009008AB2A464946069800F07CFBC4
:104590000898411C0FD0504400F086FC0D998842C9
:1045A00038D1089D49462A467F1C059800F035FB06
:1045B000040003D03FE06FF031043CE030466D1C56
:1045C000059900F047FD040035D109A9304600F0F7
:1045D000F3FC04002FD1BDF82410B1EB080000D586
:1045E000404241450DD9584514D90AA9304600F03A
:1045F00031FD04464A460AA90598FBF739FF7F1E9C
:1046000008E083464A460AA80599FBF731FF00985F
:104610000028B7D07CB91198076012990C980870DF
:10462000012086F841011198007886F83F01129820
:10463000007886F8400113B02046BDE8F08F10B531
:1046400041F0010204460021FEF7BDFF002811D110
:104650002046FFF767FE00280CD100212046FEF718
:10466000EFF8002806D120460022BDE81040114690
:10467000FEF7A9BF10BD2DE9F04385B04FF000044F
:104680001E0091460F46804625468DF8104001D009
:1046900098F85C4101221146FEF795FF38B9402198
:1046A0004046FFF7CCFF10B9B9F1010F10D03D70B3
:1046B00000280AD1002E08D0224601214046FEF7EC
:1046C00082FF002801D188F85C4105B0BDE8F08385
:1046D000012004A900970395CDE901102A4601465F
:1046E0001346404600F001F8E2E72DE9FF4F81B0A4
:1046F0000020DDE90EA9DDE910650F468DF8000008
:104700009B460122FF210198FEF75DFF044600222F
:1047100011460198FEF757FF40EA04080022FF21E6
:104720000198FEF750FF40EA08046FB12EB15246DF
:10473000CB210198FEF7DBFB0443A5B16A46EE21CD
:104740000198FEF7D4FB0DE02EB1CB21039A01981E
:10475000FEF739FF044335B15B468022EE21019814
:10476000FEF71CFF04430122FF210198FEF72BFFF7
:1047700040EA0405012200210198FEF724FF40EAE7
:1047800005040022FF210198FEF71DFF9DF800108F
:10479000204301F0EF0289F8002005B0BDE8F08F5A
:1047A0002DE9FF4107464FF4FA60029000200E46C3
:1047B000A1F63634039069463846FEF7F5FA00282C
:1047C00047D19DF80010051F29B99DF8011011B9B6
:1047D0009DF8021011B302AA0221384600F083FAB4
:1047E000002836D19DF8001029B1029901F24E211E
:1047F000A14231D2641A9DF8021031B1029901F23E
:10480000B221490007E0641A08E09DF8011029B1BF
:10481000029901F52571A142F5D31DE09DF8031021
:1048200061B103AA0321384600F05DFA039901F54E
:104830002571A14210D2641A00280AD19DF80410F3
:10484000002906D0A4F226220421384600F007FCF5
:10485000FE6004B0BDE8F0812846FAE730B587B0C5
:10486000134604AD012205AC0095CDE90142039247
:104870000A460021FFF739FF07B030BD2DE9F047A8
:1048800091468A4686B005460024B42606274FF096
:104890002C080122FF21FEF796FEB0B900224F211D
:1048A0002846FEF790FE80B92C224E212846FEF7BE
:1048B0008AFE50B90022FF212846FEF784FE20B967
:1048C0003246B6212846FEF77EFE002001462A1811
:1048D000401C82F85011B842F9D3B9F1000F01D150
:1048E00006E0641C301900F0DFFA08B94445F8D33B
:1048F00005A90097CDE903A1CDE9016405F5A873E9
:104900009A1D4946284600F03FF9002806D10121AA
:1049100085F8411185F83FA185F8409106B0BDE8C2
:10492000F0872DE9FF41064600208DF80C00144663
:104930000D46D0076FF003077CD125B1012D0FD0B4
:104940002DB111D0C2E00C2C74D3122C72D80C2CC7
:1049500013D00E2C13D0102C13D0122C13D0B5E082
:10496000082CF1D30E2CF1D8082C17D00A2C37D0F4
:104970000C2C49D00E2C79D0A8E0182204E030226B
:1049800002E0402200E0502257213046FEF71BFE95
:10499000082256213046FEF716FE95E010224821E7
:1049A0003046FEF710FE082247213046FEF70BFE88
:1049B0008046022232213046FEF705FE40EA080812
:1049C0000C2230213046FEF7FEFD40EA08080122A5
:1049D000FF213046FEF7F7FD40EA0808302236E0B6
:1049E000282248213046FEF7EEFD082247213046B6
:1049F000FEF7E9FD8046032232213046FEF7E3FD53
:104A000040EA0808092244E0382248213046FEF7EF
:104A1000DAFD082247213046FEF7D5FD8046032205
:104A200032213046FEF7CFFD40EA08080822302147
:104A3000304600E051E0FEF7C6FD40EA08080122DA
:104A4000FF213046FEF7BFFD40EA08082022302152
:104A50003046FEF7B8FD40EA08080022FF21304644
:104A6000FEF7B1FD40EA08002EE0FFE748221146BC
:104A70003046FEF7A8FD082247213046FEF7A3FD89
:104A80008046032232213046FEF79DFD40EA0808A9
:104A9000072230213046FEF796FD40EA0808012241
:104AA000FF213046FEF78FFD40EA08082022302122
:104AB0003046FEF788FD40EA08080022FF21304614
:104AC000FEF781FD40EA0800002807D12046FEF7E6
:104AD00083FF80462DB1012D23D0384604B0BDE8B8
:104AE000F08101AA0321304600F0FDF8B0B902AA16
:104AF0000221304600F0F7F880B942465021304696
:104B0000FEF761FD50B903213046019A00F0A7FA83
:104B100020B902213046029A00F0A1FA86F8144129
:104B200012E06A460421304600F0DDF850B94246F2
:104B300070213046FEF747FD20B904213046009A27
:104B400000F08DFA86F80C410028C7D13046F16894
:104B5000FEF7A3FB0028C1D10123002203A93046A0
:104B6000FFF7FBFBBAE70907090E002804DB00F199
:104B7000E02080F80014704700F00F0000F1E02002
:104B800080F8141D7047FEE72DE9FF4F83B0002524
:104B9000DDE9127B98468A46DDF840902C466FF09E
:104BA0003106009718E06B463A464946059800F0F2
:104BB0006BF80098411C05D01199084400F074F975
:104BC000504501D0354609E0009F49463A464046E7
:104BD00000F023F8641C7F1C5C45E4D31498076044
:104BE000BDB94146039800F035FA050011D101A97D
:104BF000039800F073F80546002101A807E018F8B3
:104C00000120435C9A4201D0354602E0491C4945E7
:104C1000F5D307B02846BDE8F08F70B50824B2FB85
:104C2000F4F3B2FBF4F60546002004FB16228B4297
:104C300002D36FF0310070BDE95C01249440214340
:104C4000E95470BD0FB40020F0B50246DDE913371A
:104C5000DDE91565014605AC06E054F821C0BC4508
:104C600001D30A4602E0491C9942F6D3994202D187
:104C7000591E0A4601E02AB1511E31602A60F0BC7B
:104C80005DF814FB0021F8E72DE9F043082589467B
:104C90000026711E1960B2FBF5F1B2FBF5F705FBBA
:104CA000112C3C4614E00021025DBC420DD122FAD9
:104CB0000CF2614609E05FEAC27804D004FB0511FA
:104CC0000126196003E05208491CA942F3D3641C71
:104CD0004C4501D2002EE6D0BDE8F08306230A46FB
:104CE000B021FEF781B92DE9F041002486B01746C6
:104CF00080468DF808402546ADF80440264641B16F
:104D0000012906D0022904D0032912D0042929D070
:104D10005DE06A4600214046FEF77FF8040005D1B9
:104D200002AA46214046FEF7E2F804469DF8080034
:104D300015E06A4600214046FEF76FF8040046D1B0
:104D40006A4600214046FEF768F8040005D101AA32
:104D500051214046FEF71EF90446BDF80400FEF757
:104D6000FFFD2DE003A94046FEF71EF89DF80F0059
:104D7000002590B16A4600214046FEF74EF8040037
:104D80001DD101AA51214046FEF704F90446BDF8A1
:104D90000400FEF7E5FD85B28CB96A460121404664
:104DA000FEF73BF804000AD105AA71214046FEF740
:104DB000F1F80446BDF81400FEF7D2FD86B2701B70
:104DC00081B29DF800204046FEF7B9FD05463D60E2
:104DD00006B02046BDE8F08170B505465121FEF7CA
:104DE00033F9512185F88411002858D12846FDF760
:104DF0004DFD002853D12846FEF716FB00284ED162
:104E0000274A284602F10A01FEF73DF8002846D15C
:104E1000234A2846921C511EFEF732F800283ED144
:104E20001F4C2846A41EA278E168FEF73AFA002833
:104E300035D12279E1782846FEF731FA00282ED1C3
:104E400001212846FEF704F9002828D14FF48042BA
:104E500001212846FEF7F9F9002820D14FF49012DD
:104E600000212846FEF7F1F9002818D10D492846FF
:104E7000FEF713FA002812D1122200212846FEF76D
:104E800068FA00280BD10E2201212846FEF761FAAC
:104E9000002804D12846BDE87040FEF75CBA70BD1A
:104EA00002000020400D03000146044A8909012048
:104EB00052F82110002900D100207047CC020020B8
:104EC00008B5FCF7BBFAFDF72FFB34480025016855
:104ED00041F080010160016801F0800100910168EA
:104EE00041F001010160016801F0010100910168D8
:104EF00041F00201016000682A4C00F002000090BD
:104F0000274820602848C4E901054FF48040C4E9DF
:104F100003506561A561E56120462562FBF74CFE03
:104F200008B172B6FEE71F482049543001604FF4C3
:104F30001651C0E901150C21C560C0E90451856115
:104F4000C561FCF725FF08B172B6FEE7184852218B
:104F5000C0F8804180F88411164CC0F88C51C0F81C
:104F60008851A068FFF738FF0E4D1C3D11491048CD
:104F7000FDF763FE60700028F8D10A490C481C391F
:104F8000FDF77CFE607020B900210948FDF758FC50
:104F90006070287E0028E9D100BFE7E73038024082
:104FA00000540040AC040020A08601000010014025
:104FB000DC0200200000002070B50E4688B00546D7
:104FC00090F85C41C0220121FEF7FDFA002823D1B0
:104FD00069462846FDF76AFF00281DD10122FF21FE
:104FE0002846FEF7F0FA002816D13246B6212846A8
:104FF000FDF7D0FF00280FD10022FF212846FEF741
:10500000E2FA002808D1224601212846FEF7DBFA01
:10501000002801D185F85C4108B070BD10B50020B2
:105020001870052913D2DFE801F00306090C0F0000
:10503000C2F3001109E0C2F3C00106E0C2F380012F
:1050400003E0C2F3801100E0D109197010BD6FF0C8
:10505000030010BD06230A46B021FEF7EBBA2DE986
:10506000FF411646054669B101290BD0022909D036
:10507000032923D004293FD06FF0030404B0204655
:10508000BDE8F0816A460021FDF7C7FE0400F5D1B6
:105090009DF8002031462846FEF740FC80B2B0F56E
:1050A000807F01D9FF2201E0401EC2B2A5F8042191
:1050B00046212846FEF787FA0446DFE76A460021C4
:1050C000FDF7ABFE04469DF8002031462846FEF76A
:1050D00025FC80B2FEF771FCADF80400A5F80401D0
:1050E000002CCBD1024651212846FEF786FA040057
:1050F000C4D1C5F81061C1E702A9FDF755FE9DF8BE
:105100000B00002798B16A4600212846FDF785FE6E
:105110000400B3D101AA51212846FDF73BFF044604
:10512000BDF80400FEF71CFC87B2002CA6D16A462D
:1051300001212846FDF771FE04009FD19DF8002053
:1051400031462846FEF7EAFB3844FEF736FC0246B5
:1051500071212846FEF751FA04008FD1C5F8086185
:105160008CE72DE9F0471C46174688468146FBF739
:10517000D3FC0646012509E0601C06D024B1FBF7EC
:10518000CBFC801BA04200D9002500BF4146484609
:10519000FBF760FCB84201D0012DEDD02846BDE8F8
:1051A000F0874FF04070E1EE100A704700000000F9
:1051B00000000000010203040607080900000000C7
:1051C00001020304E451000800000020DC0200009A
:1051D000C401000878540008DC020020EC0800003C
:1051E000280200085200012005DC020020081201FC
:1051F0000C621015100724F40001FF011330150193
:10520000FF00010900011000011100012401012526
:10521000FF01751B20094E2C014800013020212080
:105220003630090154000131040132030140830189
:10523000462501600001270001500601510001527E
:1052400096015608015730016100016200016400B7
:105250000165000166A045300B2232014714014967
:10526000FF014A6920097A0A017B00017821602048
:105270001B23340142000144FF014526014605017C
:105280004040010E0601201A0143402A2006340343
:1052900001354487117520094B09014C05014D0466
:1052A00042301D440001452001470801482801679C
:1052B000000170040171010172FE0176000177B7EF
:1052C000230D0169200680010101F8C6128EE44118
:1052D000123503411B51F9106701014F0201FF0E06
:1052E00001000301018401020A0103030104080112
:1052F00005C801060301078D0108080109C6010A56
:1053000001010B02010C00010DD5010E18010F1255
:105310000110010111820112000113D501141801BD
:10532000151301160301178601180A011909011A3C
:1053300008011BC2011C03011D8F011E0A011FD59C
:105340001431010121020122000123D50124180199
:1053500025220126010127820128000129D5012AE1
:1053600018012B0B012C28012D78012E28012F91DB
:1053700001306B34380B01320001330B0134000172
:1053800035A10136000137A0013800013904013A86
:1053900028013B30013C0C013D04013E0F013F79E7
:1053A00001402801411E01422F0143872024080BA0
:1053B00001460001470BBF2749A77A24064BA601E7
:1053C0004C0041124EF315B6242F000151800152BA
:1053D0000901530801540101550001560F01577985
:1053E000015809015905015A00015B60015C050182
:1053F0005DD1015E0C015F3CEC142C61D001620BAD
:1054000001630301642801651001662A01673901FF
:10541000680B016902016A28016B10016C2A016D99
:1054200061016E0C016F9534110F017179017200E9
:1054300001730B01740001750B9E140DA10178001E
:105440000179A0017A00017BCB441F0401791D0181
:105450007B2701960E0197FE0198030199EF019AAF
:1054600002019B440173070170A425B949AF120AD8
:085470000452050C21080000A4
:040000050800018965
:00000001FF
