:020000040800F2
:1000000008070020290200083915000835150008E6
:10001000371500081F0400088517000800000000BD
:100020000000000000000000000000003D15000876
:1000300021040008000000003B1500083F150008DF
:10004000430200084302000843020008430200087C
:10005000430200084302000843020008430200086C
:10006000430200084302000843020008430200085C
:10007000430200084302000843020008430200084C
:10008000430200084302000843020008430200083C
:10009000430200084302000843020008430200082C
:1000A000430200084302000843020008430200081C
:1000B000430200084302000843020008430200080C
:1000C00043020008430200084302000843020008FC
:1000D00043020008430200084302000843020008EC
:1000E00043020008430200084302000843020008DC
:1000F00043020008430200084302000843020008CC
:1001000043020008430200084302000843020008BB
:1001100043020008430200084302000843020008AB
:10012000430200084302000843020008430200089B
:10013000430200084302000843020008430200088B
:10014000430200084302000843020008430200087B
:10015000430200084302000843020008430200086B
:10016000430200084302000843020008430200085B
:100170004302000843020008430200080000000098
:10018000430200084302000800F002F800F03CF8C7
:100190000AA090E8000C82448344AAF10107DA45E2
:1001A00001D100F031F8AFF2090EBAE80F0013F0F8
:1001B000010F18BFFB1A43F001031847B0160000E7
:1001C000D0160000103A24BF78C878C1FAD8520778
:1001D00024BF30C830C144BF04680C6070470000C1
:1001E0000023002400250026103A28BF78C1FBD840
:1001F000520728BF30C148BF0B6070471FB501F0E0
:1002000023FB1FBD10B510BD00F0CFF81146FFF75E
:10021000F5FF01F0C9FA00F0EDF803B4FFF7F2FFC3
:1002200003BC00F0F5F80000094880470948004782
:10023000FEE7FEE7FEE7FEE7FEE7FEE7FEE7FEE796
:10024000FEE7FEE704480549054A064B70470000F3
:10025000D5150008890100080801002008070020C2
:10026000080300200803002053EA020C00F0698014
:100270002DE9F04B4FF00006002B1FBFB3FA83F5BA
:1002800003FA05F424FA05F65E4012BF1643B2FAEB
:1002900082F502FA05F4C5F120051EBF22FA05FC1D
:1002A00044EA0C04203556EA044C4FEA144418BFC3
:1002B000641C4FF000084FF00009904271EB030CF2
:1002C00039D3002919BFB1FA81F701FA07F6B0FA5C
:1002D00080F700FA07F6C7F120071EBF20FA07FCD7
:1002E00046EA0C062037B6FBF4FCA7EB0507103FE7
:1002F00007F01F0BCBF120060CFA0BFB2CFA06F6CD
:1003000044BFB3460026202FA4BF5E464FF0000B2B
:100310005BEA060C08BF4FF0010B19EB0B09ABFBB6
:10032000027C48EB0608C01B06FB02CC0BFB03CC8F
:1003300071EB0C01C1E70B46024641464846BDE859
:10034000F08B13B54FF000004FF00001AFF30080C9
:10035000BDE81C4070474FF0000200B513469446BC
:100360009646203922BFA0E80C50A0E80C50B1F10D
:100370002001BFF4F7AF090728BFA0E80C5048BF21
:100380000CC05DF804EB890028BF40F8042B08BFBF
:10039000704748BF20F8022B11F0804F18BF00F8BB
:1003A000012B7047704770477047754600F02CF876
:1003B000AE4605006946534620F00700854618B052
:1003C00020B5FFF73FFFBDE820404FF000064FF09B
:1003D00000074FF000084FF0000B21F00701AC467A
:1003E000ACE8C009ACE8C009ACE8C009ACE8C00999
:1003F0008D46704710B50446AFF300802046BDE837
:100400001040FFF70ABF000000487047A800002016
:1004100001491820ABBEFEE7260002007047FEE748
:10042000704700002DE9F84FDFF884B20D4604460E
:1004300058451BD09F48844218D09F48844215D00D
:100440009E48844212D09E4884420FD09D488442E8
:100450000CD09D48844209D09C48844206D09C48D8
:10046000844203D0AC219BA001F09DF928680104CF
:10047000090C01D0000C03D0AD2196A001F093F936
:100480006868F8B101281DD011281BD0022819D0A6
:10049000122817D0B0F5881F14D0B0F5041F11D062
:1004A000B0F5441F0ED0B0F5901F0BD0B0F5081F6B
:1004B00008D0B0F5481F05D0032803D0AE2185A091
:1004C00001F071F900264FF003094FF00F0A0120E7
:1004D000B0402F688046074047457CD1287900F01E
:1004E0000300012801D002281DD1E86848B1012885
:1004F00007D0022805D0032803D0C02175A001F041
:1005000052F9A168700009FA00F29143EA6882404A
:100510000A43A2606068297920EA0800C1F300114B
:10052000B140014361602879C043800712D0A868B8
:1005300038B1012805D0022803D0D12165A001F0EF
:1005400032F9E168700009FA00F29143AA6882402A
:100550000A43E260287900F0030002282ED12869BE
:10056000F8B109281DD001281BD0022819D0032872
:1005700017D0042815D0052813D0062811D0072835
:100580000FD008280DD00A280BD00B2809D00C2832
:1005900007D00D2805D00F2803D0DE214DA001F093
:1005A00002F9F00804EB8000026A7107C90E0AFA2A
:1005B00001F39A432B698B40134303622168700057
:1005C00009FA00F291432A7902F0030282400A43B9
:1005D0002260686800E065E010F4403F62D04C485B
:1005E000016841F480410160006826F0030100F4D5
:1005F0008040009047480A18D2F80838B007010F29
:100600000AFA01F083435C4501D1002023E0294828
:10061000844201D101201EE02748844201D10220FA
:1006200019E02648844201D1032014E02448844282
:1006300001D104200FE02348844201D105200AE0C3
:100640002148844201D1062005E02048844201D19E
:10065000072000E0082088401843C2F808082E4907
:1006600008686A68B843D20300D5384308602A494D
:10067000091D08686A68B843920300D538430860CA
:100680002549083108686A68B843D20200D5384362
:10069000086021490C3108686A68B843920200D5A5
:1006A00038430860761C102EFFF411AFBDE8F88FB8
:1006B000000002400004024000080240000C02401A
:1006C000001002400014024000180240001C0240CA
:1006D000002002402E2E2F447269766572732F53CC
:1006E000544D3332463478785F48414C5F447269E8
:1006F0007665722F5372632F73746D33326634785C
:10070000785F68616C5F6770696F2E63000000003E
:100710004438024000300140003C014001488068FC
:10072000704700000000002070B504007DD08A49A9
:10073000206888420AD08949884207D0884988427F
:1007400004D040F2BF1187A001F02DF860689349F2
:10075000401E884204D94FF4E07182A001F023F8D2
:10076000A0684FF4804530B1A84204D040F2C111D6
:100770007CA001F018F8E068800A04D04FF4E17121
:1007800078A001F010F82069A84207D0B0F5404FDA
:1007900004D040F2C31173A001F005F8606930B1D4
:1007A000012804D04FF4E2716EA000F0FCFFA069B4
:1007B00030F0FE0004D040F2C5116AA000F0F3FF53
:1007C000E06930B1402804D04FF4E37165A000F037
:1007D000EAFF206A30B1802804D040F2C71161A03E
:1007E00000F0E1FF94F83D00002520B984F83C506A
:1007F000204600F0DDF8242084F83D0020680168E0
:1008000021F0010101602068016841F400410160AC
:100810002068016821F40041016000F007FB604B93
:100820006168994202D85F4901E002E05E4988426E
:1008300001D2012070BD5D492268B0FBF1F156681C
:1008400026F03F060E43566062689A4206D94FF47E
:10085000967251434FF47A72B1FBF2F12268491C4F
:10086000166A26F03F06314311626168994210D83A
:100870004900401EB0FBF1F2521CC2F30B02042AE5
:1008800001D2042022E0B0FBF1F0401CC0F30B00C9
:100890001CE0A268F2B301EBC10303EB0116431E97
:1008A000B3FBF6F35B1C43F480431B0549D092B3C2
:1008B00001EBC10202EB0111401EB0FBF1F0401C44
:1008C000C0F30B0040F4804040F400402168CA6946
:1008D0004CF6FF739A431043C861D4E907100143F3
:1008E0002068026822F0C00211430160D4E90301CC
:1008F00001432068826848F2FF339A4311438160C4
:10090000D4E9051001432068C26822F0FF021143B8
:10091000C16001E00EE016E02068016841F00101CD
:1009200001602564202084F83D00256384F83E5052
:10093000002070BD01EB4106431EB3FBF6F35B1CC8
:10094000B3E70120C2E701EB4101401EB0FBF1F02B
:10095000401CC0F30B00B7E70054004000580040B3
:10096000005C00402E2E2F447269766572732F53FF
:10097000544D3332463478785F48414C5F44726955
:100980007665722F5372632F73746D3332663478C9
:10099000785F68616C5F6932632E63007F1A0600BE
:1009A000A086010080841E0000093D0040420F0027
:1009B00010B586B0044614216846FFF7CCFC1349F5
:1009C0002068884220D112480021026842F00202C9
:1009D0000260006800F002000590C0200090122024
:1009E000CDE90101032003900420049069460948E1
:1009F000FFF718FD06481030016841F4001101604E
:100A0000006800F40010059006B010BD00540040CE
:100A100030380240000402400248816802781144E4
:100A200081607047000000200B4810B5016841F458
:100A300000710160016841F480610160016841F466
:100A400080710160032000F08FF80F2000F006F89D
:100A500000F024F8002010BD003C024070B50D4DA0
:100A600004464FF47A712878B1FBF0F00A4909681E
:100A7000B1FBF0F000F06EFC48B9102C07D2002258
:100A80002146501E00F022F800206C6070BD01204D
:100A900070BD0000000000200C0000200A4808B5CE
:100AA000016841F480410160006800F480400090DA
:100AB0000548001F016841F080510160006800F0A6
:100AC0008050009008BD00004438024070B51446C4
:100AD0000D460646102A03D3AA2113A000F063FE98
:100AE000102D03D3AB2110A000F05DFE1D4800685F
:100AF000C0F30223C3F10700042800D90420191D04
:100B0000072901D2002300E0DB1E012202FA00F1D6
:100B1000491E294099409A40521E22403046BDE865
:100B20007040114300F02FBE2E2E2F44726976655F
:100B300072732F53544D3332463478785F48414CAA
:100B40005F4472697665722F5372632F73746D33CD
:100B500032663478785F68616C5F636F7274657851
:100B60002E6300000CED00E010B5044607280BD002
:100B7000062C09D0052C07D0042C05D0032C03D05B
:100B8000922108A000F00FFE154A04F0070110683A
:100B90004FF6FF03184040EA012012490843106055
:100BA00010BD00002E2E2F447269766572732F538C
:100BB000544D3332463478785F48414C5F44726913
:100BC0007665722F5372632F73746D333266347887
:100BD000785F68616C5F636F727465782E63000084
:100BE0000CED00E00000FA052DE9F0470D46040089
:100BF0007ED02068401E0E2804D94FF4177178A0CB
:100C000000F0D1FD95B1012D10D0022D0ED0032D95
:100C10000CD0042D0AD0052D08D0062D06D0072DA6
:100C200004D040F25D216EA000F0BDFDDFF8E89138
:100C3000D9F8000000F00701E8B28046A94208D2C6
:100C4000014689F80010D9F8000000F00700A8421A
:100C50007BD12068714E810729D5400703D53068C4
:100C600040F4E05030602078000703D5306840F44D
:100C700060403060A068A0B1802812D0902810D0C9
:100C8000A0280ED0B0280CD0C0280AD0D02808D078
:100C9000E02806D0F02804D04FF4207150A000F0D6
:100CA00082FD3068A16820F0F000084330602078B1
:100CB000C0073CD0594F6068083F88B1012821D057
:100CC000022822D0032820D040F2872144A000F03F
:100CD0006AFD6068012815D0022816D0032814D0B8
:100CE00038688007002830DA306820F0030000E020
:100CF0002BE0616808433060FFF710FD074641F2C2
:100D0000883A0DE038688003ECE738688001E9E74D
:100D1000FFF704FDC11B514502D90320BDE8F08750
:100D20003068616800F00C00B0EB810FF0D1D9F8A9
:100D30000010484601F00701A94208D980F8008058
:100D4000006800F00700A84201D00120E6E7207803
:100D50004FF4805540074FF4A0574FF4C0584FF45C
:100D6000E05914D5E06860B1A8420AD0B84208D072
:100D7000404506D0484504D040F2C52118A000F0F7
:100D800012FD3068E16820F4E050084330602078BC
:100D9000000715D5206960B1A8420AD0B84208D032
:100DA000404506D0484504D04FF433710CA000F004
:100DB000FAFC3068216920F4604040EAC1003060EC
:100DC00000F054F83168164AC1F30311515CC84071
:100DD0001449086014480068FFF740FE00209DE7B2
:100DE0002E2E2F447269766572732F53544D333211
:100DF000463478785F48414C5F4472697665722F5B
:100E00005372632F73746D3332663478785F686120
:100E10006C5F7263632E6300003C0240083802403E
:100E2000521800080C000020040000200448054966
:100E300000680968044AC1F38221515CC8407047C8
:100E40000C000020083802406218000804480549D8
:100E500000680968044AC1F34231515CC8407047D8
:100E60000C0000200838024062180008154810B530
:100E7000006810F00C01144813D0431004290FD05F
:100E800008290ED10F4C241F216801F03F02216870
:100E9000490207D52068C0F38810A0FB030106E0D3
:100EA000184610BD2168C1F38811A1FB0001002381
:100EB000FFF7DAF92168C1F30141491C4900B0FB91
:100EC000F1F010BD083802400024F4002DE9F84F7D
:100ED00004007DD020680F2803D9E821F5A000F098
:100EE00062FC2078DFF804B4C007ABF1040554D0ED
:100EF00060684FF480364FF4A02738B1B04205D077
:100F0000B84203D0ED21EBA000F04DFCF748001DE6
:100F10000168C1F38101012908D00068C0F3810094
:100F200002280AD1DBF80000400206D528688003B9
:100F300033D560680028CCD02FE06068B04203D180
:100F4000286840F480300CE0B842286803D140F4AF
:100F500080202860F4E720F480302860286820F49E
:100F600080202860606860B1FFF7D8FB064604E087
:100F7000FFF7D4FB801B64287DD828688003F7D551
:100F80000BE0FFF7CBFB064604E0FFF7C7FB801B37
:100F90006428F1D828688003F7D42078DFF85093CC
:100FA00080074FF0000A4FD5E06830B1012804D027
:100FB00040F21F11BFA000F0F6FB20691F2804D9E2
:100FC0004FF49071BBA000F0EEFBC848001D00E09C
:100FD00090E0016811F00C0F08D00068C0F38100A8
:100FE00002280AD1DBF80000400206D428688007F6
:100FF00014D5E06801287DD110E0E068B0B101208F
:10100000C9F80000FFF78AFB064604E0FFF786FBFD
:10101000801B0228B0D828688007F7D52868216986
:1010200020F0F80040EAC10028600DE0C9F800A0F7
:10103000FFF774FB064604E0FFF770FB801B0228F5
:101040009AD828688007F7D4207800072BD5A74FB7
:10105000A84E60697037C0B1012806D04FF4B07156
:1010600094A000F0A0FB606978B101203060FFF728
:1010700055FB064605E014E1FFF750FB801B0228F4
:1010800087D838688007F7D50DE0C6F800A0FFF7CD
:1010900045FB064604E0FFF741FB801B0228B9D858
:1010A00038688007F7D42078400772D5A0684FF0E1
:1010B000000840B1012806D0052804D04FF4C671BD
:1010C0007CA000F070FB89483C300068C0000BD465
:1010D00086483C30016841F08051016000684FF063
:1010E000010800F080500090834F3868C00511D48B
:1010F000386800E02AE140F480703860FFF70EFBAA
:10110000064604E0FFF70AFB801B022898D83868DF
:10111000C005F7D5754FA0686C3701280FD005289A
:10112000386810D020F001003860386820F00400E2
:101130003860A068B0B1FFF7F1FA06460EE03868F3
:1011400040F00100F4E740F004003860F7E7FFF7F3
:10115000E5FA811B41F28830814291D838688007D6
:10116000F5D50DE0FFF7DAFA064606E0FFF7D6FA06
:10117000811B41F28830814291D838688007F5D4CC
:10118000B8F1000F05D059483C30016821F080517A
:101190000160A069002875D0012809D0022807D075
:1011A00040F2CF1143A000F0FEFAA0690028F2D06F
:1011B0004E48001D0068C0F381000228A06973D06A
:1011C000022805D0C9F860A0FFF7A8FA04466CE031
:1011D000E06938B1B0F5800F04D04FF4EC7135A060
:1011E00000F0E1FA206A3F2804D940F2D91131A079
:1011F00000F0D9FA606A3238B0F5BF7F04D94FF4F5
:10120000ED712CA000F0CFFAA06A02280AD00428C1
:1012100008D0062806D0082804D040F2DB1125A00B
:1012200000F0C1FAE06A801E0D2804D94FF4EE7177
:1012300020A000F0B8FA4F46C9F860A0FFF76EFA98
:10124000064604E0FFF76AFA801B022829D82868BE
:101250008001F7D4D4E907010843A16A274A490865
:1012600002EB0141626A41EA8211084394F82C10B2
:1012700040EA0161CBF8001001203866FFF74EFA12
:10128000044605E064E0FFF749FA001B022808D88D
:1012900028688001F7D55BE0FFF740FA001B0228C1
:1012A00003D90320BDE8F88F2AE028688001F3D431
:1012B0004EE000002E2E2F447269766572732F5314
:1012C000544D3332463478785F48414C5F447269FC
:1012D0007665722F5372632F73746D333266347870
:1012E000785F68616C5F7263632E6300043802404C
:1012F00000004742800E4742007000400000FFFFA0
:101300000128CFD0DBF80000E26900F480019142AF
:101310001CD1226A00F03F01914217D147F6C071FB
:10132000626A0140B1EB821F10D1A26A4FF0FF3315
:1013300000F4403103EB5202B1EB024F06D194F8B6
:101340002C1000F07060B0EB016F01D00120A9E714
:101350000020A7E710B5401EB0F1807F01D3012027
:1013600010BD4FF0E02460610F21601700F00BFA10
:101370000020A06107202061002010BD70B504008E
:1013800023D0A0693B4900283B4A3C4B3C4D206898
:101390001DD088420CD090420AD0984208D0A84272
:1013A00006D04FF4B97137A000F0FDF9A06908B379
:1013B000A069B0F5807F1DD0B0F5007F1AD0B0F5E0
:1013C000407F17D040F2731111E0012070BD8842B8
:1013D00010D090420ED098420CD03949884209D0A2
:1013E0003849884206D0A84204D040F2771125A09F
:1013F00000F0D9F9A06838B1B0F5805F04D040F2B0
:10140000791120A000F0CFF9E06938B1B0F5004FB4
:1014100004D04FF4BD711BA000F0C5F994F83D0055
:10142000002520B984F83C50204600F04DF82420D7
:1014300084F83D002068C16821F40051C160204655
:1014400000F0D0F82068016921F490410161206822
:10145000416921F02A0141612068C16841F40051CD
:10146000C1602564202084F83D0084F83E000020FF
:1014700070BD0000001001400044004000480040E2
:10148000001401402E2E2F447269766572732F531B
:10149000544D3332463478785F48414C5F4472692A
:1014A0007665722F5372632F73746D33326634789E
:1014B000785F68616C5F756172742E630000000074
:1014C000004C00400050004010B586B00446142186
:1014D0006846FEF740FF14492068884221D113482E
:1014E0000021026842F010020260006800F0100063
:1014F00005900E481438026842F00102026000684C
:1015000000F0010005904FF4C06000900220CDE98A
:101510000101032003900720049069460448FEF768
:1015200081FF06B010BD00000010014044380240A9
:1015300000000240FEE7FEE7FEE770477047FFF756
:101540006BBA000030B593B030216846FEF703FF58
:1015500014210CA8FEF7FFFE1C480025016841F08D
:1015600080510160006800F08050119018480168B7
:1015700041F4804101600068022400F48040119031
:1015800001200090000401908001CDE9064008AAE6
:101590000420542182E813000B906846FFF796FC64
:1015A00008B172B6FEE70CA90F2081E831004FF4B4
:1015B0008050CDE90F0502210CA8FFF715FB00288C
:1015C00001D072B6FEE713B030BD000040380240D3
:1015D000007000400248016841F4700101607047EA
:1015E00088ED00E070B5044640685449884204D94B
:1015F00040F6566152A000F0D6F8E06838B1B0F578
:10160000005F04D040F657614DA000F0CCF820698F
:1016100050B1B0F5806F07D0B0F5C06F04D040F680
:10162000586147A000F0BFF860694FF6F3710842B7
:1016300000D120B940F6596141A000F0B4F820680B
:101640000169E26821F4405111430161A1682069F8
:10165000E26901436069104301432068C26849F2AE
:101660000C639A430A43C26020684169A26921F46D
:1016700040711143416141492068884202D040498C
:10168000884202D1FFF7E2FB01E0FFF7CFFBE269FE
:101690000023192164253226B2F5004F626828D054
:1016A000A0FB0101930F9200FEF7DEFD0146B0FBA7
:1016B000F5F06FF01802504301EB800006EB0010CC
:1016C000B0FBF5F000F0F002B1FBF5F002EB001218
:1016D000B1FBF5F06FF01803584301EB800006EB07
:1016E0000010B0FBF5F000F00F0021681044886096
:1016F00070BDA0FB010192185B41FEF7B5FD0146EC
:10170000B0FBF5F00201B1FBF5F06FF018035843A0
:1017100001EB800006EBC000B0FBF5F000F0F80034
:1017200002EB4002B1FBF5F0584301EB800006EB01
:10173000C000B0FBF5F000F00700D6E7A037A0002E
:101740002E2E2F447269766572732F53544D3332A7
:10175000463478785F48414C5F4472697665722FF1
:101760005372632F73746D3332663478785F6861B7
:101770006C5F756172742E63000000000010014000
:1017800000140140FEE70907090E002804DB00F100
:10179000E02080F80014704700F00F0000F1E02016
:1017A00080F8141D7047704708B5FFF73DF9FFF743
:1017B000C9FE20480024016841F0800101600168F1
:1017C00001F080010091016841F0010101600168B0
:1017D00001F001010091016841F00201016000681F
:1017E000154900F002000090144801601449C0E956
:1017F00001144FF48041C0E9034144618461C46134
:101800000462FEF791FF08B172B6FEE70B480D497E
:10181000543001604FF41651C0E901140C21C4602A
:10182000C0E904418461C461FFF7A8FD08B172B644
:10183000FEE7FEE730380240005400401000002070
:10184000A0860100001001404FF04070E1EE100A48
:1018500070470000000000000000010203040607BA
:101860000809000000000102030400008C180008B1
:101870000000002010000000C40100089C180008AF
:1018800010000020F8060000E00100080100000040
:0C18900010000000000000000024F40024
:040000050800018965
:00000001FF
