:020000040800F2
:10000000F00B0020290200082F200008F11B000837
:100010002D200008B70500087B250008000000001F
:100020000000000000000000000000003320000875
:100030003D0600080000000031200008BD22000835
:10004000430200084302000843020008430200087C
:10005000430200084302000843020008430200086C
:10006000430200084302000843020008430200085C
:10007000430200084302000843020008430200084C
:10008000430200084302000843020008430200083C
:10009000430200084302000843020008430200082C
:1000A000430200084302000843020008430200081C
:1000B000430200084302000843020008430200080C
:1000C00043020008430200084302000843020008FC
:1000D00043020008430200084302000843020008EC
:1000E00043020008430200084302000843020008DC
:1000F00043020008430200084302000843020008CC
:1001000043020008430200084302000843020008BB
:1001100043020008430200084302000843020008AB
:10012000430200084302000843020008430200089B
:10013000430200084302000843020008430200088B
:10014000430200084302000843020008430200087B
:10015000430200084302000843020008430200086B
:10016000430200084302000843020008430200085B
:100170004302000843020008430200080000000098
:10018000430200084302000800F002F800F03CF8C7
:100190000AA090E8000C82448344AAF10107DA45E2
:1001A00001D100F031F8AFF2090EBAE80F0013F0F8
:1001B000010F18BFFB1A43F001031847C851000094
:1001C000E8510000103A24BF78C878C1FAD8520725
:1001D00024BF30C830C144BF04680C6070470000C1
:1001E0000023002400250026103A28BF78C1FBD840
:1001F000520728BF30C148BF0B6070471FB505F0DC
:10020000AFF81FBD10B510BD00F09BF91146FFF708
:10021000F5FF05F019F800F0B9F903B4FFF7F2FFA4
:1002200003BC00F0C1F900000948804709480047B5
:10023000FEE7FEE7FEE7FEE7FEE7FEE7FEE7FEE796
:10024000FEE7FEE704480549054A064B70470000F3
:100250005523000889010008F0050020F00B00205C
:10026000F0070020F007002053EA020C00F069803C
:100270002DE9F04B4FF00006002B1FBFB3FA83F5BA
:1002800003FA05F424FA05F65E4012BF1643B2FAEB
:1002900082F502FA05F4C5F120051EBF22FA05FC1D
:1002A00044EA0C04203556EA044C4FEA144418BFC3
:1002B000641C4FF000084FF00009904271EB030CF2
:1002C00039D3002919BFB1FA81F701FA07F6B0FA5C
:1002D00080F700FA07F6C7F120071EBF20FA07FCD7
:1002E00046EA0C062037B6FBF4FCA7EB0507103FE7
:1002F00007F01F0BCBF120060CFA0BFB2CFA06F6CD
:1003000044BFB3460026202FA4BF5E464FF0000B2B
:100310005BEA060C08BF4FF0010B19EB0B09ABFBB6
:10032000027C48EB0608C01B06FB02CC0BFB03CC8F
:1003300071EB0C01C1E70B46024641464846BDE859
:10034000F08B13B54FF000004FF00001AFF30080C9
:10035000BDE81C407047032A40F2308010F0030CC7
:1003600000F0158011F8013BBCF1020F624498BF08
:1003700011F801CB00F8013B38BF11F8013BA2F1A5
:10038000040298BF00F801CB38BF00F8013B11F020
:10039000030300F02580083AC0F0088051F8043BC0
:1003A000083A51F804CBA0E80810F5E7121D5CBF2D
:1003B00051F8043B40F8043BAFF30080D20724BF60
:1003C00011F8013B11F801CB48BF11F8012B24BFF4
:1003D00000F8013B00F801CB48BF00F8012B704743
:1003E00010B5203AC0F00B80B1E81850203AA0E8D0
:1003F0001850B1E81850A0E81850BFF4F5AF5FEA04
:10040000027C24BFB1E81850A0E8185044BF18C9B6
:1004100018C0BDE810405FEA827C24BF51F8043B5D
:1004200040F8043B08BF7047D20728BF31F8023BB1
:1004300048BF11F8012B28BF20F8023B48BF00F845
:10044000012B704702F0FF0343EA032242EA024213
:1004500000F057B84FF0000200B513469446964698
:10046000203922BFA0E80C50A0E80C50B1F12001C7
:10047000BFF4F7AF090728BFA0E80C5048BF0CC075
:100480005DF804EB890028BF40F8042B08BF7047D3
:1004900048BF20F8022B11F0804F18BF00F8012B45
:1004A000704710B5044610F0030F08BF11F0030F9A
:1004B00040F015804FF0013E121FC0F20E8051F83F
:1004C000043BA3EB0E0C2CEA030C1CEACE1C08BF69
:1004D00040F8043BF0D0A1F1040102F10402521EE5
:1004E00008DB11F8013B002B00F8013BF7D1114666
:1004F00000F005F8204610BD7047704770474FF078
:1005000000020429C0F0128010F0030C3FF4A4AFE5
:10051000CCF1040CBCF1020F18BF00F8012BA8BFEE
:1005200020F8022BA1EB0C01FFF796BF5FEAC17C1C
:1005300024BF00F8012B00F8012B48BF00F8012B65
:100540007047754600F02CF8AE46050069465346E4
:1005500020F00700854618B020B5FFF773FEBDE810
:1005600020404FF000064FF000074FF000084FF01A
:10057000000B21F00701AC46ACE8C009ACE8C009AB
:10058000ACE8C009ACE8C0098D46704710B5044618
:10059000AFF300802046BDE81040FFF73EBE0000EC
:1005A000004870479005002001491820ABBEFEE7C7
:1005B000260002007047FEE77FB5044603A903F05A
:1005C000BEF894F87C6394F87F53002834D16B46CE
:1005D00001AA02A9204602F0A1FF00282CD1204642
:1005E00004F00BFD002827D14FF4FA71204602F0E9
:1005F00090FB002820D12A4631462046636901F04D
:100600002BFD002818D1DDE901212046009B04F0D4
:10061000BAFC002810D10098206103A9204604F0FC
:10062000CDFC002808D1A1780622204603F07EFDEB
:10063000002801D184F87E5304B070BD70470000DB
:1006400070B5044600F0ECF90546601C02D0044881
:100650000078044400F0E4F9401BA042FAD370BDD6
:10066000080000202DE9F84FDFF884B20D4604465B
:1006700058451BD09F48844218D09F48844215D0CB
:100680009E48844212D09E4884420FD09D488442A6
:100690000CD09D48844209D09C48844206D09C4896
:1006A000844203D0AC219BA004F082FD28680104A1
:1006B000090C01D0000C03D0AD2196A004F078FD08
:1006C0006868F8B101281DD011281BD0022819D064
:1006D000122817D0B0F5881F14D0B0F5041F11D020
:1006E000B0F5441F0ED0B0F5901F0BD0B0F5081F29
:1006F00008D0B0F5481F05D0032803D0AE2185A04F
:1007000004F056FD00264FF003094FF00F0A0120B8
:10071000B0402F688046074047457CD1287900F0DB
:100720000300012801D002281DD1E86848B1012842
:1007300007D0022805D0032803D0C02175A004F0FB
:1007400037FDA168700009FA00F29143EA6882401F
:100750000A43A2606068297920EA0800C1F3001109
:10076000B140014361602879C043800712D0A86876
:1007700038B1012805D0022803D0D12165A004F0AA
:1007800017FDE168700009FA00F29143AA688240FF
:100790000A43E260287900F0030002282ED128697C
:1007A000F8B109281DD001281BD0022819D0032830
:1007B00017D0042815D0052813D0062811D00728F3
:1007C0000FD008280DD00A280BD00B2809D00C28F0
:1007D00007D00D2805D00F2803D0DE214DA004F04E
:1007E000E7FCF00804EB8000026A7107C90E0AFA00
:1007F00001F39A432B698B40134303622168700015
:1008000009FA00F291432A7902F0030282400A4376
:100810002260686800E065E010F4403F62D04C4818
:10082000016841F480410160006826F0030100F492
:100830008040009047480A18D2F80838B007010FE6
:100840000AFA01F083435C4501D1002023E02948E6
:10085000844201D101201EE02748844201D10220B8
:1008600019E02648844201D1032014E02448844240
:1008700001D104200FE02348844201D105200AE081
:100880002148844201D1062005E02048844201D15C
:10089000072000E0082088401843C2F808082E49C5
:1008A00008686A68B843D20200D5384308602A490C
:1008B000091D08686A68B843920200D53843086089
:1008C0002549091F08686A68B843920300D5384370
:1008D00008602149083908686A68B843D20300D51E
:1008E00038430860761C102EFFF411AFBDE8F88F76
:1008F000000002400004024000080240000C0240D8
:10090000001002400014024000180240001C024087
:10091000002002402E2E2F447269766572732F5389
:10092000544D3332463478785F48414C5F447269A5
:100930007665722F5372632F73746D333266347819
:10094000785F68616C5F6770696F2E6300000000FC
:100950004438024000300140083C014070B50C00B2
:10096000054604D14FF4BE7103A004F021FC2869B0
:10097000204000D0012070BD2E2E2F447269766574
:1009800072732F53544D3332463478785F48414C5C
:100990005F4472697665722F5372632F73746D337F
:1009A00032663478785F68616C5F6770696F2E6358
:1009B0000000000070B515460C00064604D140F258
:1009C0009D1108A004F0F4FB45B1012D04D04FF4B3
:1009D000CF7104A004F0ECFBB46170BD2004B061E1
:1009E00070BD00002E2E2F447269766572732F53EE
:1009F000544D3332463478785F48414C5F447269D5
:100A00007665722F5372632F73746D333266347848
:100A1000785F68616C5F6770696F2E63000000002B
:100A200001488068704700000800002070B504008D
:100A30007DD08A49206888420AD08949884207D0F7
:100A40008849884204D04FF4DF7187A004F0B0FBDE
:100A500060689349401E884204D940F2BF1182A0C9
:100A600004F0A6FBA0684FF4804530B1A84204D042
:100A70004FF4E0717CA004F09BFBE068800A04D096
:100A800040F2C11178A004F093FB2069A84207D07E
:100A9000B0F5404F04D04FF4E17173A004F088FB2F
:100AA000606930B1012804D040F2C3116EA004F097
:100AB0007FFBA06930F0FE0004D04FF4E2716AA021
:100AC00004F076FBE06930B1402804D040F2C51153
:100AD00065A004F06DFB206A30B1802804D04FF48B
:100AE000E37161A004F064FB94F83D00002520B997
:100AF00084F83C50204600F063FA242084F83D003E
:100B00002068016821F0010101602068016841F45A
:100B1000004101602068016821F40041016000F09B
:100B20008DFC604B6168994202D85F4901E002E0A8
:100B30005E49884201D2012070BD5D492268B0FB48
:100B4000F1F1566826F03F060E43566062689A42FD
:100B500006D94FF4967251434FF47A72B1FBF2F119
:100B60002268491C166A26F03F063143116261680B
:100B7000994210D84900401EB0FBF1F2521CC2F35A
:100B80000B02042A01D2042022E0B0FBF1F0401C49
:100B9000C0F30B001CE0A268F2B301EBC10303EB4E
:100BA0000116431EB3FBF6F35B1C43F480431B05A5
:100BB00049D092B301EBC10202EB0111401EB0FB20
:100BC000F1F0401CC0F30B0040F4804040F40040C2
:100BD0002168CA694CF6FF739A431043C861D4E98F
:100BE000071001432068026822F0C002114301602F
:100BF000D4E9030101432068826848F2FF339A4335
:100C000011438160D4E9051001432068C26822F0D5
:100C1000FF021143C16001E00EE016E020680168A8
:100C200041F0010101602564202084F83D00256326
:100C300084F83E50002070BD01EB4106431EB3FB1B
:100C4000F6F35B1CB3E70120C2E701EB4101401E54
:100C5000B0FBF1F0401CC0F30B00B7E700540040BC
:100C600000580040005C00402E2E2F4472697665CB
:100C700072732F53544D3332463478785F48414C69
:100C80005F4472697665722F5372632F73746D338C
:100C900032663478785F68616C5F6932632E630016
:100CA0007F1A0600A086010080841E0000093D0016
:100CB00040420F002DE9F84F984617468A460446F1
:100CC000DDF82890FFF7ACFE054694F83D0020289B
:100CD00075D1192301226C492046009501F08AF84C
:100CE0000028F5D194F83C00012868D0012084F850
:100CF0003C0020680168C90703D1016841F0010187
:100D000001602068016821F400610160222084F8FC
:100D10003D00102084F83E00002626646762A4F897
:100D20002A80608D20855948E0622B464A4651460C
:100D3000204600F075FF002878D1208D544F68B10F
:100D4000012814D002282068016816D041F480617F
:100D50000160206841698069009087E020684169EE
:100D600081690091016841F4007101607EE02068B2
:100D7000016821F480610160F0E721F48061016085
:100D80002068016841F40061E2E7032848D801289F
:100D90000AD0022814D04B4600223946204600953E
:100DA00001F028F8D8BB27E02A464946204601F042
:100DB000A1F8A0BB20680069616A08704DE061E09D
:100DC0004B46002239462046009501F013F830BB0F
:100DD0002068016841F40071016020680069616A5F
:100DE0000870606A401C6062218D491E2185618DFA
:100DF000491E618521682EE02068016821F4806128
:100E0000016020680069616A0870606A401C606265
:100E1000208D401E2085608D401E6085D0E705E056
:100E20002A464946204601F065F810B10120BDE888
:100E3000F88F20680069616A0870606A401C60620F
:100E4000218D491E2185618D491E618521684A6970
:100E5000D24352070AD409690170606A401C60627B
:100E6000208D401E2085608D401E6085208D0028CD
:100E70008BD1202084F83D0084F83E6084F83C60EB
:100E80000020D4E70220D2E7020010000000FFFF9C
:100E9000040001002DE9F84F1F4690468A4604469B
:100EA000DDF82890FFF7BCFD054694F83D002028AA
:100EB0007FD11923012240492046009500F09AFF76
:100EC000002876D194F83C00012872D0012084F8E3
:100ED0003C0020680168C90703D1016841F00101A5
:100EE00001602068016821F400610160212084F81C
:100EF0003D00102084F83E0000262664C4F82480BB
:100F00006785608D20852D48E0622B464A46514614
:100F1000204600F0FBFE90B920684169806900908E
:100F200036E02A464946204601F019F850B1206CB7
:100F3000042804D12068016841F400710160012097
:100F4000BDE8F88F606A216800780861626A521C07
:100F50006262608D401E6085208D401E80B22085BB
:100F600021684B69DB435B070BD450B110780861F3
:100F7000606A401C6062608D401E6085208D401E4E
:100F800020852A464946204600F00EFF0028CED193
:100F9000208D0028C5D154F83D0B016841F4007143
:100FA0000160202004F81E09E67766770020C7E775
:100FB000FFE70220C4E70000020010000000FFFF6E
:100FC00010B586B0044614216846FFF743FA13496A
:100FD0002068884220D112480021026842F00202B3
:100FE0000260006800F002000590C020009012200E
:100FF000CDE90101032003900420049069460948CB
:10100000FFF730FB06481030016841F40011016021
:10101000006800F40010059006B010BD00540040B8
:1010200030380240000402400248816802781144CE
:1010300081607047080000200B4810B5016841F43A
:1010400000710160016841F480610160016841F450
:1010500080710160032000F08FF80F2000F006F887
:1010600000F024F8002010BD003C024070B50D4D8A
:1010700004464FF47A712878B1FBF0F00A49096808
:10108000B1FBF0F000F06EFC48B9102C07D2002242
:101090002146501E00F022F800206C6070BD012037
:1010A00070BD000008000020140000200A4808B5A8
:1010B000016841F480410160006800F480400090C4
:1010C0000548001F016841F080510160006800F090
:1010D0008050009008BD00004438024070B51446AE
:1010E0000D460646102A03D3A82113A004F060F889
:1010F000102D03D3A92110A004F05AF81D48006850
:10110000C0F30223C3F10700042800D90420191DED
:10111000072901D2002300E0DB1E012202FA00F1C0
:10112000491E294099409A40521E22403046BDE84F
:101130007040114304F02CB82E2E2F44726976654E
:1011400072732F53544D3332463478785F48414C94
:101150005F4472697665722F5372632F73746D33B7
:1011600032663478785F68616C5F636F727465783B
:101170002E6300000CED00E010B5044607280BD0EC
:10118000062C09D0052C07D0042C05D0032C03D045
:10119000902108A004F00CF8154A04F0070110682B
:1011A0004FF6FF03184040EA01201249084310603F
:1011B00010BD00002E2E2F447269766572732F5376
:1011C000544D3332463478785F48414C5F447269FD
:1011D0007665722F5372632F73746D333266347871
:1011E000785F68616C5F636F727465782E6300006E
:1011F0000CED00E00000FA052DE9F0470D46040073
:101200007ED02068401E0E2804D940F25A2178A0D2
:1012100003F0CEFF95B1012D10D0022D0ED0032D7D
:101220000CD0042D0AD0052D08D0062D06D0072D90
:1012300004D040F25B216EA003F0BAFFDFF8E89122
:10124000D9F8000000F00701E8B28046A94208D2B0
:10125000014689F80010D9F8000000F00700A84204
:101260007BD12068714E810729D5400703D53068AE
:1012700040F4E05030602078000703D5306840F437
:1012800060403060A068A0B1802812D0902810D0B3
:10129000A0280ED0B0280CD0C0280AD0D02808D062
:1012A000E02806D0F02804D040F27E2150A003F0C0
:1012B0007FFF3068A16820F0F0000843306020789C
:1012C000C0073CD0594F6068083F88B1012821D041
:1012D000022822D0032820D040F2852144A003F028
:1012E00067FF6068012815D0022816D0032814D0A3
:1012F00038688007002830DA306820F0030000E00A
:101300002BE0616808433060FFF78AFB074641F233
:10131000883A0DE038688003ECE738688001E9E737
:10132000FFF77EFBC11B514502D90320BDE8F087C2
:101330003068616800F00C00B0EB810FF0D1D9F893
:101340000010484601F00701A94208D980F8008042
:10135000006800F00700A84201D00120E6E72078ED
:101360004FF4805540074FF4A0574FF4C0584FF446
:10137000E05914D5E06860B1A8420AD0B84208D05C
:10138000404506D0484504D040F2C32118A003F0E0
:101390000FFF3068E16820F4E050084330602078A7
:1013A000000715D5206960B1A8420AD0B84208D01C
:1013B000404506D0484504D040F2CA210CA003F0B5
:1013C000F7FE3068216920F4604040EAC1003060D7
:1013D00000F054F83168164AC1F30311515CC8405B
:1013E0001449086014480068FFF740FE00209DE79C
:1013F0002E2E2F447269766572732F53544D3332FB
:10140000463478785F48414C5F4472697665722F44
:101410005372632F73746D3332663478785F68610A
:101420006C5F7263632E6300003C02400838024028
:101430006A530008140000200C00002004480549ED
:1014400000680968044AC1F38221515CC8407047B2
:1014500014000020083802407A5300080448054967
:1014600000680968044AC1F34231515CC8407047C2
:1014700014000020083802407A530008154810B5BF
:10148000006810F00C01144813D0431004290FD049
:1014900008290ED10F4C241F216801F03F0221685A
:1014A000490207D52068C0F38810A0FB030106E0BD
:1014B000184610BD2168C1F38811A1FB000100236B
:1014C000FEF7D2FE2168C1F30141491C4900B0FB7F
:1014D000F1F010BD083802400024F4002DE9F84F67
:1014E00004007DD020680F2803D9E621F5A003F081
:1014F0005FFE2078DFF804B4C007ABF1040554D0D8
:1015000060684FF480364FF4A02738B1B04205D060
:10151000B84203D0EB21EBA003F04AFEF748001DD0
:101520000168C1F38101012908D00068C0F381007E
:1015300002280AD1DBF80000400206D528688003A3
:1015400033D560680028CCD02FE06068B04203D16A
:10155000286840F480300CE0B842286803D140F499
:1015600080202860F4E720F480302860286820F488
:1015700080202860606860B1FFF752FA064604E0F8
:10158000FFF74EFA801B64287DD828688003F7D5C2
:101590000BE0FFF745FA064604E0FFF741FA801B2F
:1015A0006428F1D828688003F7D42078DFF85093B6
:1015B00080074FF0000A4FD5E06830B1012804D011
:1015C00040F21D11BFA003F0F3FD20691F2804D9CC
:1015D0004FF48F71BBA003F0EBFDC848001D00E085
:1015E00090E0016811F00C0F08D00068C0F3810092
:1015F00002280AD1DBF80000400206D428688007E0
:1016000014D5E06801287DD110E0E068B0B1012078
:10161000C9F80000FFF704FA064604E0FFF700FAF5
:10162000801B0228B0D828688007F7D52868216970
:1016300020F0F80040EAC10028600DE0C9F800A0E1
:10164000FFF7EEF9064604E0FFF7EAF9801B0228EF
:101650009AD828688007F7D4207800072BD5A74FA1
:10166000A84E60697037C0B1012806D04FF4AF7141
:1016700094A003F09DFD606978B101203060FFF710
:10168000CFF9064605E014E1FFF7CAF9801B0228EE
:1016900087D838688007F7D50DE0C6F800A0FFF7B7
:1016A000BFF9064604E0FFF7BBF9801B0228B9D852
:1016B00038688007F7D42078400772D5A0684FF0CB
:1016C000000840B1012806D0052804D04FF4C571A8
:1016D0007CA003F06DFD89483C300068C0000BD44D
:1016E00086483C30016841F08051016000684FF04D
:1016F000010800F080500090834F3868C00511D475
:10170000386800E02AE140F480703860FFF788F91B
:10171000064604E0FFF784F9801B022898D8386851
:10172000C005F7D5754FA0686C3701280FD0052884
:10173000386810D020F001003860386820F00400CC
:101740003860A068B0B1FFF76BF906460EE0386864
:1017500040F00100F4E740F004003860F7E7FFF7DD
:101760005FF9811B41F28830814291D83868800747
:10177000F5D50DE0FFF754F9064606E0FFF750F9FE
:10178000811B41F28830814291D838688007F5D4B6
:10179000B8F1000F05D059483C30016821F0805164
:1017A0000160A069002875D0012809D0022807D05F
:1017B00040F2CD1143A003F0FBFCA0690028F2D059
:1017C0004E48001D0068C0F381000228A06973D054
:1017D000022805D0C9F860A0FFF722F904466CE0A2
:1017E000E06938B1B0F5800F04D04FF4EB7135A04B
:1017F00003F0DEFC206A3F2804D940F2D71131A063
:1018000003F0D6FC606A3238B0F5BF7F04D94FF4DC
:10181000EC712CA003F0CCFCA06A02280AD00428AA
:1018200008D0062806D0082804D040F2D91125A0F7
:1018300003F0BEFCE06A801E0D2804D94FF4ED7160
:1018400020A003F0B5FC4F46C9F860A0FFF7E8F808
:10185000064604E0FFF7E4F8801B022829D8286830
:101860008001F7D4D4E907010843A16A274A49084F
:1018700002EB0141626A41EA8211084394F82C109C
:1018800040EA0161CBF8001001203866FFF7C8F884
:10189000044605E064E0FFF7C3F8001B022808D8FF
:1018A00028688001F7D55BE0FFF7BAF8001B022833
:1018B00003D90320BDE8F88F2AE028688001F3D41B
:1018C0004EE000002E2E2F447269766572732F53FE
:1018D000544D3332463478785F48414C5F447269E6
:1018E0007665722F5372632F73746D33326634785A
:1018F000785F68616C5F7263632E63000438024036
:1019000000004742800E4742007000400000FFFF89
:101910000128CFD0DBF80000E26900F48001914299
:101920001CD1226A00F03F01914217D147F6C071E5
:10193000626A0140B1EB821F10D1A26A4FF0FF33FF
:1019400000F4403103EB5202B1EB024F06D194F8A0
:101950002C1000F07060B0EB016F01D00120A9E7FE
:101960000020A7E710B5401EB0F1807F01D3012011
:1019700010BD4FF0E02460610F21601703F008FCF8
:101980000020A06107202061002010BD70B5040078
:1019900023D0A0693B4900283B4A3C4B3C4D206882
:1019A0001DD088420CD090420AD0984208D0A8425C
:1019B00006D040F2731137A003F0FAFBA06908B318
:1019C000A069B0F5807F1DD0B0F5007F1AD0B0F5CA
:1019D000407F17D04FF4BA7111E0012070BD8842EA
:1019E00010D090420ED098420CD03949884209D08C
:1019F0003849884206D0A84204D04FF4BC7125A0D3
:101A000003F0D6FBA06838B1B0F5805F04D04FF486
:101A1000BD7120A003F0CCFBE06938B1B0F5004FF8
:101A200004D040F27B111BA003F0C2FB94F83D00F0
:101A3000002520B984F83C50204600F04DF82420C1
:101A400084F83D002068C16821F40051C16020463F
:101A500000F088FC2068016921F490410161206850
:101A6000416921F02A0141612068C16841F40051B7
:101A7000C1602564202084F83D0084F83E000020E9
:101A800070BD0000001001400044004000480040CC
:101A9000001401402E2E2F447269766572732F5305
:101AA000544D3332463478785F48414C5F44726914
:101AB0007665722F5372632F73746D333266347888
:101AC000785F68616C5F756172742E63000000005E
:101AD000004C00400050004010B586B00446142170
:101AE0006846FEF7B7FC13492068884220D11248A7
:101AF0000021026842F400320260006800F4003005
:101B000005900D481038026842F00102026000683A
:101B100000F0010005900C2000900220CDE90101A9
:101B2000032003900720049069460448FEF79AFDBD
:101B300006B010BD004400404038024000000240A2
:101B40002DE9F843044690F83D001F4615460E4621
:101B500020284BD1C6B1BDB194F83C00012845D036
:101B6000012084F83C004FF00008C4F84080212098
:101B700084F83D00FEF754FFA5848146E584A06803
:101B8000B0F5805F03D004E00120BDE8F883206950
:101B900020B13546002684F83C800EE00025FAE7A7
:101BA0008021204600F0AEFCA0B9ADB115F8010BC4
:101BB00021684860E08C401EE084E08C4B464FF08A
:101BC000000200970028EBD14FF04001204600F0C2
:101BD00099FC30B10320D8E736F8020BC0F30800B7
:101BE000E6E7202084F83D000020CEE70220CCE785
:101BF000FEE701684A69D24352050FD46FF4806250
:101C00004A61002140F8301F20224273817302692B
:101C100042F0040202610173012070470020704706
:101C20002DE9F84F0446C06A1D4693460F462168C9
:101C30000A6842F480620A60082807D0012805D0AB
:101C400010F5803F02D0206B112804D12068016874
:101C500041F4807101604FF001195B460022494652
:101C60002046009500F0C6F84FF4007840B1206897
:101C70000068C00501D5C4F840800320BDE8F88F96
:101C80002069DFF884A0B0F5804F0FD006202168CE
:101C900000EAD71646F0F00008612B465A460AF1D2
:101CA0000601204600F0DAF858BB03E0F8B240F035
:101CB00001001CE02168F8B208612B465A465146E3
:101CC000204600F0CBF8E0B92068416981690091B5
:101CD000016841F4807101605B460022494620465C
:101CE000009500F087F80028C1D146F0F100216886
:101CF00008612B465A465146204600F0AFF80028AE
:101D0000BCD00120BAE7000002000100F8B504468B
:101D1000C06A1E460D461746082807D0012805D080
:101D200010F5803F02D0206B122804D12068016892
:101D300041F480710160134600224FF001112046EA
:101D4000009600F057F840B120680068C00502D541
:101D50004FF4007020640320F8BD2069B0F5804F77
:101D60000ED00620216800EAD51040F0F00008618E
:101D700033463A460B49204600F070F878B902E045
:101D800005F0FE0000E0E8B221680861054933462D
:101D90003A46891F204600F061F80028DCD0012077
:101DA000F8BD00000800010070B516460D46044657
:101DB0000DE02046FFF71DFF08B1012070BD681C33
:101DC00005D0FEF72DFE801BA84207D835B120684C
:101DD0004069C0434007ECD4002070BD002044F8A7
:101DE000300F20216173A073216941F0200121612E
:101DF0002073E2E72DE9F0471D4690460E46044663
:101E0000C1F30747DDF8209008E0681C06D0FEF714
:101E100007FEA0EB0900A8420FD875B12068012F7A
:101E200018D0806926EA00000004000C14D00020BD
:101E30004045EAD00020BDE8F087002044F8300F8C
:101E400020216173A073216941F020012161207379
:101E50000120F0E74069E5E70120E9E72DE9F047D7
:101E6000984615460E4604464FF000094FF0200AEA
:101E7000C1F3074723E020684069C043400515D4FB
:101E80002068016841F40071016021686FF480608E
:101E90004861C4F8309084F83DA084F83E90216CED
:101EA00041F00401216484F83C901EE0681C06D0D7
:101EB000FEF7B6FDA0EB0800A8420AD84DB1206895
:101EC000012F15D0806926EA00000004000C0DD017
:101ED000D1E744F8309F84F80DA084F80E90216972
:101EE00041F02001216184F80C900120BDE8F087C9
:101EF0004069E8E72DE9F04116460D460446002703
:101F00004FF0200817E04069C043C0060DD454F8D4
:101F1000301B6FF01000486144F80D7B04F81D89F8
:101F2000A777206A2062277717E0FEF779FD801BEC
:101F3000A84208D83DB120684169C9434906E2D4A6
:101F40000020BDE8F08144F8307F84F80D80A7734D
:101F5000206940F02000206127730120F1E770B56F
:101F600016460D4604460DE02046FFF742FE08B136
:101F7000012070BD681C05D0FEF752FD801BA842F1
:101F800007D835B120684069C0430006ECD4002072
:101F900070BD002044F8300F20216173A0732169C7
:101FA00041F0200121612073E2E7000070B586B0A6
:101FB00014216846FEF74EFA19480024016841F0E2
:101FC00080010160016801F080010591016841F024
:101FD00001010160016801F001010591016841F012
:101FE0000201016000680F4E00F00200059000221F
:101FF00020213046FEF7DEFC0125CDE9005469467C
:1020000009480294FEF72EFB20200090CDE90154F0
:10201000694630460394FEF725FB06B070BD00000C
:10202000303802400004024000000240FEE7FEE7B4
:102030007047704710B5002421B1012907D0241F33
:10204000204610BDC2F38F3102F062FEF8E7C2F302
:102050004F2102F058FEF3E7F0B589B01F460C4659
:102060000646032940D0082C3ED020250B4626A149
:1020700000200968009125A10968019124A109683F
:10208000029101218DF81410012A2FD0022A2FD09D
:102090000221032B30D0042B2CD0082B2ED06FF034
:1020A000070000281ED106A907A8CDE9000103AB4F
:1020B00004AA9DF81410304601F0C7F9002811D188
:1020C000DDE90601CDE900100297BDF810209DF86A
:1020D00014103046039B02F026FE002802D1B57092
:1020E00086F87C4309B0F0BD4025BFE70021D0E76A
:1020F0000121CEE76A4602E001AA00E002AA515C93
:102100008DF81410CDE70000020103000706080057
:10211000242526002DE9FC4706460A9C5868644F92
:10212000206093F83E004FF0000900F01F054FF4C7
:10213000967C41B1072D26D0B3F93C00604504DA06
:102140004FF4F01006E000201EE041F69A1110FB5B
:1021500001F080B1198FDFF85CC101FB0CF101EBDC
:102160005001B1FBF0F00004B84201D8381A04E085
:102170004FF4481001E04FF4C800C0F30740642852
:102180001AD8322800D832206071988D002740027A
:10219000A060188E4002E060188A2082188F4002EA
:1021A0006061988F2083A776032A19D006DC012A64
:1021B00016D0022A06D113E06420E5E70D2A11D0DB
:1021C000112A0DD0281FE77610283AD2DFE800F058
:1021D0002D2B2F31353739393339393939392729C9
:1021E000052000E00D20E076188F01AA4002C6F815
:1021F0009003988D00214002C6F89403304600F009
:102200000EFA062D1FD0002080466A460021304677
:1022100000F0F9F99DF80000012816D01AE00A2014
:10222000E1E70620DFE70420DDE70220DBE701200D
:10223000D9E70720D7E70920D5E70320D3E7002017
:10224000D1E7FF20CFE70120DEE7B8F1000F01D092
:10225000012000E0002086F8860301AA0121304613
:1022600000F0DDF9042D0AD000256A460121304630
:1022700000F0C9F99DF80000012802D004E0012512
:10228000F3E70DB1012000E0002086F88703B4F9E0
:102290001800E17E49B9002807DA074949688142F8
:1022A00002DD0E20E07600E027834846BDE8FC878B
:1022B00033B37500CDCC300018000020FEF7B4BE5B
:1022C00030B593B030216846FEF7C4F814210CA84D
:1022D000FEF7C0F81D480025016841F080510160FB
:1022E000006800F0805011901948016841F4804165
:1022F00001600068022400F48040119001200090E9
:10230000000401908001CDE9064008AA0420A8211C
:1023100082E813000B906846FFF7E0F808B172B648
:10232000FEE70CA90F2081E831004FF4A0500F9078
:102330004FF48050109005210CA8FEF75DFF002897
:1023400001D072B6FEE713B030BD00004038024045
:10235000007000400248016841F47001016070475C
:1023600088ED00E070B5044640685449884204D9BD
:1023700040F6616152A002F01BFFE06838B1B0F591
:10238000005F04D040F662614DA002F011FF2069A9
:1023900050B1B0F5806F07D0B0F5C06F04D040F6F3
:1023A000636147A002F004FF60694FF6F3710842D1
:1023B00000D120B940F6646141A002F0F9FE206826
:1023C0000169E26821F4405111430161A16820696B
:1023D000E26901436069104301432068C26849F221
:1023E0000C639A430A43C26020684169A26921F4E0
:1023F00040711143416141492068884202D04049FF
:10240000884202D1FFF72AF801E0FFF717F8E269E6
:102410000023192164253226B2F5004F626828D0C6
:10242000A0FB0101930F9200FDF71EFF0146B0FBD8
:10243000F5F06FF01802504301EB800006EB00103E
:10244000B0FBF5F000F0F002B1FBF5F002EB00128A
:10245000B1FBF5F06FF01803584301EB800006EB79
:102460000010B0FBF5F000F00F0021681044886008
:1024700070BDA0FB010192185B41FDF7F5FE01461E
:10248000B0FBF5F00201B1FBF5F06FF01803584313
:1024900001EB800006EBC000B0FBF5F000F0F800A7
:1024A00002EB4002B1FBF5F0584301EB800006EB74
:1024B000C000B0FBF5F000F00700D6E7A037A000A1
:1024C0002E2E2F447269766572732F53544D33321A
:1024D000463478785F48414C5F4472697665722F64
:1024E0005372632F73746D3332663478785F68612A
:1024F0006C5F756172742E63000000000010014073
:10250000001401402DE9F0411E4617468846044656
:10251000069D26E0681C24D025B1FEF781FA801BB9
:10252000A8421ED920680C3050E8001F21F4D07159
:1025300040E80012002AF5D12068143050E8001F4E
:1025400021F0010140E80012002AF5D1202084F892
:102550003D0084F83E00002084F83C000320BDE8E4
:10256000F0812068016838EA010004D00020B842F8
:10257000D0D00020F3E70120F9E7FEE790F87E23B2
:1025800090F87F338178934201D0FEF715B800F0C0
:1025900011BD70B50546012100F0E5FD28B9012106
:1025A00085F87813082185F87C13002400281AD1B7
:1025B00001222146284600F065FA641CE4B2022C90
:1025C000F4D300280FD14FF490120021284600F0D8
:1025D00074FA002807D12846BDE870404FF48042C5
:1025E000012100F06ABA70BD38B50C46694600F0AA
:1025F000B2FE009A4FF47A739101B1FBF3F1521AD3
:102600000092226038BD03460020022902D3001F39
:10261000002102E0194491F88413117070477CB5D1
:1026200015460C00064604D0012C09D06FF00300BB
:102630007CBD01A900F0A3FEBDF80410890305E0EC
:10264000694600F096FEBDF8001049020028EFD15F
:1026500006EB8402331931B12960C2F888130121D5
:1026600083F884137CBDD2F8881329600021F7E732
:10267000F0B587B0064600208DF800008DF8040004
:1026800002900390049008600D466A46052130468A
:1026900000F074F8040050D101AA0621304600F081
:1026A0006DF8040049D103AB02AA04A9304600F03A
:1026B00035FF040041D196F87C03032817D0042885
:1026C00004D0082825D06FF0070436E09DF80000FC
:1026D000012807D09DF80400012803D0039800F5D5
:1026E0007A7029E0039841F28831084424E09DF88B
:1026F0000000012809D09DF80400012805D00398A6
:1027000045F2604101EB400016E046F2E8710398A3
:10271000F8E7F52705AA48F23601304600F037FF02
:102720000598002803DDF521484300F1F5070398DB
:1027300007F6DC5707EB4000286007B02046F0BDE5
:1027400070B50D46A2B0064601ACFF221C212846FA
:10275000FDF778FE22460221304600F0B7FD002842
:102760000AD19DF806002871231D00959DF80720C9
:1027700001213046FFF7CEFC22B070BD00F0A5BEAF
:102780002DE9F34F814689B00024A9F85440A9F8F7
:102790005640A0F858404348818B808A0FFA81FA4E
:1027A0000FFA80FB01200BEBDB7100EB610000B244
:1027B00008900BEB610000B20027B846079046E096
:1027C000484600F03EFA04000ED1484600F097FA61
:1027D000040009D169464846FFF7B2FF040003D15F
:1027E0004846FFF7CBFE044600252E461CE048462F
:1027F00000F085FA040004D169464846FFF7A0FFBF
:1028000004469DF81B0010B1002014B10AE001201D
:10281000FBE718B1BDF918006D1C07444846FFF7E7
:10282000ADFE0446761CF6B224B95D4502DA07987F
:102830008642DCDB0898A844854201DA6FF0170471
:10284000484600F04EFAAAF101000FFA80FABAF1F8
:10285000000F01DD002CB3D0002F03DBC8EB0840D4
:10286000B84202DA6FF01F0418E0BCB9B8F1000FEB
:1028700014DD08EBD87007EB600191FBF8F00A99C2
:10288000081A0021A9F85410A9F85600A9F8580010
:1028900009F14201484602F00FFA04460BB0204607
:1028A000BDE8F08F1800002070B5064620A088B063
:1028B0000068069006F1420496F87C5307A930465A
:1028C00002F089F918B92946304600F091F910F163
:1028D0001D0F2AD16B4606222821304602F0D2F87D
:1028E000002822D1022306AA1421304600F07EFAE5
:1028F00000281AD19DF81800E0719DF81900207287
:1029000004AD06232A460D21304600F06FFA002858
:102910000BD12978217069786170A978A170E97864
:10292000E170297921716979617108B070BD000089
:10293000050300002DE9F04106460C4815460A0A39
:1029400002704170014600240222304602F012FC5F
:102950006FF00C0728B901222946304602F0FAFB35
:1029600000B13C462046BDE8F08100009004002004
:102970002DE9F0410F4D8046080A2870164669700F
:10298000002402222946404602F0F4FB6FF00C07B7
:1029900028B902222946404602F0DCFB08B13C4639
:1029A00004E06878297800EB012030802046BDE8FB
:1029B000F0810000900400202DE9F04180460C4891
:1029C00016460A0A0270417001461D460024022282
:1029D000404602F0CFFB6FF00C0728B92A4631467B
:1029E000404602F0B7FB00B13C462046BDE8F0810E
:1029F000900400202DE9FF4190F87C8304460D46A9
:102A0000012908D0022D06D0032D06D06FF0030057
:102A100004B0BDE8F0810E4600E0032603A920467D
:102A200000F08DFE67690028F2D16B4601AA02A969
:102A3000204600F073FD0028EAD13B46324641466D
:102A40002046FFF709FB0028E2D184F87E6384F872
:102A50007F6384F87D53DDE901212046009B02F06D
:102A600092FA0028D4D10098206103A9204602F0F0
:102A7000A5FACDE78A014FF47A73B2FBF3F2114461
:102A800002F033B970B51546002206460C460229FD
:102A900001D3101F70BD1DB106EB8400D0F8882350
:102AA0003046FFF7C7FA0028F4D10DB1012100E04C
:102AB0000021321982F8841370BD70B503460020DE
:102AC0001546022901D3001F70BD5A1803EB81047B
:102AD00092F884232AB12A461846FFF7ABFA002859
:102AE000F2D1C4F8885370BD2DE9F04380463E48CA
:102AF0003C4E87B00F466FF00309814201D94C4626
:102B00006BE003AA05214046FFF738FE040064D1BC
:102B100004AA06214046FFF731FE04005DD102AB56
:102B20006A4601A9404600F0F9FC040055D198F826
:102B30007C13002501202D4A032919D0042909D02E
:102B4000082925D06FF00704AF42D8D9791B02912C
:102B50008CB342E09DF80C10012906D09DF81010AE
:102B6000012902D04FF47A75EEE741F28835EBE7A0
:102B70009DF80C001646012807D09DF8100001288A
:102B800003D045F260450220DEE746F2E875FAE739
:102B90001646F52505AA48F23601404600F0F7FC36
:102BA0000598002803DDF521484300F1F5050220D2
:102BB00005F6DC55C8E7FFE7B142A0D8B1FBF0F35A
:102BC000DDE900214046029302F0DDF9040004D162
:102BD0000299C8F88073C8F8101007B02046BDE805
:102BE000F08300007064080080969800E0C8100030
:102BF0002DE9F04103244FF47A770D4606463B4613
:102C00002246FFF729FA002819D186F87E4386F874
:102C10007F43042D10D0032D0ED0082D0CD048F288
:102C200035213046FFF760FF002808D1394630468D
:102C3000BDE8F041FFF71EBF4AF22801F1E7BDE809
:102C4000F0817CB50446002094F87813042916D04E
:102C500007DCA1B1012912D0022910D0032906D125
:102C600007E005290BD0622909D0632907D06FF04E
:102C70000200A57800281AD1402D03D018E06FF08B
:102C80000D00F6E701A92046FFF7F2FC01984FF48A
:102C90007A71B0FBF1F0019069462046FFF7A4FC81
:102CA000DDE90010001D814202D26FF003007CBDFF
:102CB00006222946204601F039FA0028F7D10421DE
:102CC00084F878137CBD032180F878132022827069
:102CD00080F87F1380F87E1380F87D130821FFF7BA
:102CE00087BF10B5044602F088F9002802D10321FD
:102CF00084F8781310BD4FF4FA7101F0CDBC4FF495
:102D0000FA6101F0E3BC10B50846FDF799FC00201C
:102D100010BD4FF47A7091FBF0F010B5FDF790FC08
:102D2000002010BD2DE9FF4FADF5017D0024DDE948
:102D30008EB78A469946A04626468DF8004225461B
:102D400040F2FF1215A16846FDF7ABFBC8F1000881
:102D500017E02CB980AA83998198FFF7EBFD044610
:102D60009DF8000200EA0B00484500D1012554EA15
:102D7000050004D11FB13846FDF762FC0024464629
:102D80001CB9564501D2002DE3D0254300D1EC1FDC
:102D90000DF5057D2046BDE8F08F00000000000025
:102DA00070B5074B0D0A00241D7059709A700322EC
:102DB000194602F0DFF908B16FF00C04204670BD2F
:102DC0009004002070B5084B0D0A00241D70597046
:102DD000110A9970DA700422194602F0CBF908B191
:102DE0006FF00C04204670BD9004002070B51C46A6
:102DF000002513460646FF2C01D9281F70BD0A483E
:102E00000A0A00F8012B224600F8011B1946FDF7BB
:102E1000A2FAA21C0449304602F0ACF908B16FF0E6
:102E20000C05284670BD00009004002000B50A463D
:102E300000F0FFF911465DF804EB00F084B800B52E
:102E400000F03CF85DF804EB00F01CBA70B50D46DC
:102E500000F00CF80446284600F0F0F9014604EBB7
:102E6000C400000280094843800970BD4FF08041D2
:102E7000B1FBF0F0704770B500014FF47A7690FB2B
:102E8000F6F000252C46002901DA49420DB2002A4D
:102E900001DA51420CB22919490191FBF6F10844BB
:102EA00043431033D81703EBD0604011B0F5803F97
:102EB00002DB4FF6FF7070BD80B270BD000300EB07
:102EC0005100B0FBF1F070472DE9F0471E00DDE93D
:102ED000087491468A4680464FF0000530D0A179AB
:102EE0001846FFF7B3FF034601464046FFF7E6FFEB
:102EF000FF2800D9FF20F87119465046FFF79FFFC1
:102F0000010A2170607019464846FFF798FF010AD0
:102F100021716071617A3046FFF798FF03460146E0
:102F20005046FFF78CFF010AA170E0701946484631
:102F3000FFF785FF010AE17120722846BDE8F0879E
:102F40006FF00E05F9E7A0FB01014FF40062801855
:102F500041F10001000B40EA0150704770B5034693
:102F600003F5E77202265478002004F01F05D47898
:102F7000127803F12C0106EA121693F8CC2192067E
:102F80000CD50A79062A0AD04A79A24201D06FF0FC
:102F900011008979B14201D06FF0120070BD122D7D
:102FA000FCD06FF0100070BD012280F8CB2186218B
:102FB000FFF7F6BE032201F0B9B8012353700023D6
:102FC00093708B224A744FF448410182022181722E
:102FD0001846704710F8102F0A7042784A708278AD
:102FE0008A70C278CA7002790A7142794A7182790C
:102FF0008A71C279CA71027A0A72427A4A72827AF4
:103000008A72C27ACA72027B0A73427B4A73827BDB
:103010008A73C27BCA73027C0A74427C4A74827CC3
:103020008A74C27CCA74027D0A75427D4A75827DAB
:103030008A75C27DCA75027E0A76427E4A76827E93
:103040008A76C27ECA76027F0A77427F4A77827F7B
:103050008A77C07FC87770472DE9F0430025CC7888
:103060009C701C1D4FF480384FF6FF7CA9462570DC
:10307000C4F80490CE7826B94E7806F01F06092EC3
:1030800008D04E7806F01F0684F83E6025B1012D69
:103090004DD12BE01326F7E78E78072E22D0082E8D
:1030A00022D08E8826820E8AA685CE8AE6850E8953
:1030B00026864E897601464500D3664626878E8948
:1030C0006687CE89464306F58066F71706EB5756A6
:1030D000F612A687566866629668A662D66866612A
:1030E000166823E04E8ADDE78E8ADBE70E8B2682A8
:1030F0004E8BA685A4F82EC08E8B2686CE8B7701AC
:10310000474500D3674627870E8C66874E8C46431B
:1031100006F58066F71706EB5756F612A68756692E
:1031200066629669A662D6696661166926626D1C3A
:10313000EDB24034022D9AD383F8039048784A4682
:1031400000F01F00032809D004DC012806D0022863
:1031500007D103E00D2801D0112802D1D87083F8DF
:103160004220BDE8F0833EB50D460446622101F0E1
:10317000D0F80020207001216170A070E1702171F1
:103180004FF47A71A1604900E16043F2C8212161E6
:10319000642161614FF42061218384F8210040F2B1
:1031A000DB70A4F89C00204601F039F915B12046E7
:1031B00001F098FC04F5887001F0CAF804F59070ED
:1031C00001F0D7F804F5967104F1420001F034F9EA
:1031D00004F5A27001F0A9F804F1A40001F0D8F8F8
:1031E0002021204601F0FCFE05000BD104F10C006B
:1031F00007C88DE807002046228B6178A36801F09C
:1032000092FD0546204601F054F928463EBD7F2830
:1032100007D9C0F1FF0303F0070308330B708038B0
:1032200004E000F007030B70C0F17F00C0081070CD
:103230007047C1B2000A8140481C70474000801CA2
:10324000C0B270470309137000F00F000870704798
:10325000002101F044BD002101F05FBD012101F01A
:103260003EBD012101F059BD072805D9C0F10F006D
:1032700000EBC100803003E0C1F10F0100EBC100A1
:10328000107070470022114648B1401E02E040080D
:10329000491C89B2020AFAD161F31F2082B210469A
:1032A000704700EB01101070704710B586B00C46E7
:1032B00017236A460D21FFF77FFB002804D1224621
:1032C0006946172000F089FA06B010BD2DE9F041DB
:1032D0001746044600F53D7600F057F8050008D182
:1032E000B4F89C00334604F5227204F5E771FFF749
:1032F000B3FE94F8E50201281AD125B994F8E60244
:1033000038B101280DD094F8E602FF2810D05DB145
:103310000EE0204601F0FBF80121054684F8E61294
:10332000F5E7022184F8E612204601F012F905467D
:1033300094F82C00307094F830007070842231467C
:103340003846FDF74DF81DB92046FFF707FE054644
:103350002846BDE8F081B0F8B432002233B1D0F88D
:10336000AC01B0FBF3F00860104670476FF00E023E
:10337000FAE7B0F8A8010022088010467047B0F8BC
:10338000A6010022088010467047F0B50C4688213F
:10339000C1B000F5E77700F5227600F52B75012C1A
:1033A0000BD0022C07D02C236A46FFF705FB022C1A
:1033B0000BD320B109E08623F6E74D23F4E72A4634
:1033C00038200DF14E0100F057FA34B100280BD12E
:1033D000324621200BA900F0C4F9002804D1694627
:1033E0003A462C2000F0FEFB41B0F0BD7CB5002633
:1033F0000C4605468DF800608DF8046090F82A02AE
:103400006A4601A9FFF703FF9DF8000020709DF8B0
:103410000400607095F82B020109E17000F00F00C4
:10342000A07030467CBD10B58EB00C4631236A4684
:1034300040F20F11FFF7C0FA002804D12246694676
:10344000312000F002FB0EB010BDF0B50025DDE923
:103450000546072926D007DC072913D2DFE801F04B
:103460001216161616162200242925D006DC082965
:1034700018D011290AD0122904D113E025291BD014
:10348000262919D06FF003052846F0BDB0F8CA1000
:103490001180D0F8D0101960D0F8D8102160D0F881
:1034A000E40007E030F8CC1F1180816819600169E1
:1034B0002160C0693060E7E730F8CC1F1180816877
:1034C000196041692160006AF4E710B504460020E4
:1034D0000123072910D8002904D04FF0010303FA73
:1034E00001F3DBB294F8C54104EA0304147002D07E
:1034F00024FA01F4147010BD6FF0030010BD3EB546
:103500000C460B236A460121FFF756FA002804D126
:10351000224669460B2000F037FB3EBD2DE9F047FF
:103520000446B0F85E011E4617468846002558B38B
:1035300094F8A211FFF78AFC814694F88B01494662
:10354000FFF701FDC8F8000094F89C0194F89D1164
:1035500001EB002080B24946FFF768FC386094F820
:10356000A00194F8A11101EB002080B24946FFF7B9
:103570005DFC3060D8F80000A0603868E06030681A
:1035800020612846BDE8F0876FF00E05F9E710B519
:103590000023A1F50041392970D2DFE801F01D2098
:1035A00024272A2D303336393C3F4245484B4E5173
:1035B00054575A5D606366696C707376797C7F825C
:1035C00085888B8E9194979A9DA0A3A6A9ACAFB243
:1035D000B5B8BBBEC1C4C700B0F8A40001E0B0F8E4
:1035E000A6001060A9E0B0F8A800FAE790F8B000D3
:1035F000F7E790F8B100F4E7B0F8B200F1E7B0F8FF
:103600009C00EEE790F8B400EBE7B0F8B600E8E70E
:10361000B0F8B800E5E7B0F8BA00E2E7B0F8BC00EF
:10362000DFE7B0F8BE00DCE7B0F8C000D9E790F8FB
:10363000C200D6E790F8C300D3E790F8C400D0E703
:1036400090F84001CDE790F8C500CAE790F8C700B0
:10365000C7E790F8C800C4E7B0F93E01C1E790F8A9
:10366000AA00BEE790F8AB00BBE790F8AC00B8E763
:1036700090F8AD00B5E790F8AE00B2E759E090F8E9
:10368000AF00AEE790F8C600ABE790F86001A8E79E
:1036900090F81001A5E790F81101A2E7D0F8140105
:1036A0009FE7B0F818019CE7B0F81A0199E7B0F865
:1036B0001C0196E7B0F8440193E7D0F8480190E781
:1036C000D0F850018DE7D0F84C018AE790F854010A
:1036D00087E790F8550184E790F8560181E790F864
:1036E00021017EE790F822017BE7B0F8280178E716
:1036F000B0F8CA0075E7B0F8CC0072E7D0F8D00097
:103700006FE7D0F8D4006CE7D0F8D80069E7D0F8BC
:10371000DC0066E7D0F8E40063E7D0F8E80060E793
:1037200090F8E4025DE7D0F8E0005AE7D0F8EC004A
:1037300057E76FF0004083001060184610BD70B569
:1037400004460D460A46002690F8C301491CFFF7BF
:103750005EFD94F8C401EA1CA91CFFF773FD304616
:1037600070BD70B5002614460D46212802D26FF0B8
:10377000090070BD042000F0CFFA2060291D04204C
:1037800000F0CAFA606005F10801042000F04EF96B
:10379000A06005F10C01042000F0BEFAE06005F124
:1037A0001001042000F0B8FA206105F11401042092
:1037B00000F0B2FA606105F11801042000F036F95A
:1037C000A06105F11C01042000F0A6FAE06195F863
:1037D000200084F82000304670BD70B500261446E5
:1037E0000D46172802D26FF0090070BD28782070AE
:1037F00068786070A878A070E878E0702879207107
:10380000687905F1090100F00F006071A879A071D5
:10381000E87900F03F00E071287A00F003002072A0
:10382000022000F06DFA608105F10B01022000F02A
:10383000EDF8A08105F10D01022000F0E7F8E0812C
:1038400005F10F01022000F05BFA208205F1110161
:10385000022000F0DBF8C0F30C00608205F11301D8
:10386000022000F0D3F8A08205F11501022000F03B
:10387000CDF8E082304670BD70B5002614460D4686
:10388000382802D26FF0090070BD022000F038FA2B
:1038900024F80C0BA87805F1080100F07F0004F86B
:1038A0000A0CE87800F03F0004F8090C287900F0D1
:1038B000030004F8080C687900F0010004F8070C14
:1038C000A87900F03F0004F8060CE87900F03F000A
:1038D00004F8050C022000F013FAC0F3090024F8E4
:1038E000040CA87A05F1120100F0030004F8020CA0
:1038F000E87A00F0030004F8010C287B00F00F00C8
:103900002070687B00F007006070A87B00F0010069
:10391000A070E87B00F00300E070287C2071687CD8
:103920006071022000F0ECF9C0F30B00E08005F1BB
:103930001601022000F0E4F9208105F118010220AF
:1039400000F0DEF9608115F81A0F00F00100207315
:10395000687800F007006073A878A073E878E073D7
:10396000287900F07F002074687900F07F0060748F
:10397000A87900F00300A074E87900F00F00E0746B
:10398000287A2075687A6075A87AA07515F80B0FEB
:1039900000F00100E075687800F003002076A87858
:1039A00000F01F006076E87800F01F00A07628790C
:1039B00000F01F00E076687900F001002077A87918
:1039C00000F001006077E87900F00300A07715F8B7
:1039D000080F691C00F03F00E07704202D3D00F047
:1039E0009BF9C0F31100206205F13201042000F0C0
:1039F00093F9606215F8360F00F0010004F8280F03
:103A0000687800F001006070304670BD02460B78A7
:103A10000020802B06D3401E04E011F8013B43EA4E
:103A2000002000B2521E92B2F7D2704702460B78C5
:103A30000020802B05D3401E03E011F8013B43EA30
:103A40000020521E92B2F8D2704770B5002614467C
:103A50000D46312802D26FF0090070BD287804F8B5
:103A6000060B687804F8050CA87804F8040CE91C27
:103A7000022000F045F924F8020C15F8050F00F0BB
:103A80007F002070687800F007006070A87800F070
:103A90000700A070E87800F03F00E070287900F09F
:103AA0003F002071687900F001006071A87900F092
:103AB0007F00A071E87900F00100E071287A00F041
:103AC0003F002072687A00F03F006072A87AA0720E
:103AD000E87AE072287B2073687B6073A87BA07310
:103AE000E87BE073287C2074687C6074A87CA074F8
:103AF000E87CE074287D2075687D6075A87DA075E0
:103B0000E87DE075287E2076687E6076A87EA076C7
:103B1000E87EE076287F2077687F6077A87FA077AF
:103B2000E87FE07795F8200084F8200095F82100E0
:103B300084F8210095F8220084F8220095F82300EB
:103B400084F8230095F8240084F8240095F82500D3
:103B500084F8250095F8260084F8260095F82700BB
:103B600084F8270095F8280084F8280095F82900A3
:103B700084F8290095F82A0084F82A0095F82B008B
:103B800084F82B00304670BD70B5002614460D46F3
:103B90000B2802D26FF0090070BD2878691D00F073
:103BA0007F002070687800F00F006070A87800F047
:103BB0007F00A070E87800F00300E070287900F042
:103BC0007F002071022000F09BF8E080E8792072ED
:103BD000287A6072687A00F03F00A072A87AE072DA
:103BE000304670BD70B5002614460D462C2802D212
:103BF0006FF0090070BD2878291D00F03F0020708B
:103C000068786070A87800F00F00A070E878E07025
:103C1000022000F075F8A080A91D022000F070F8C5
:103C2000E08005F10801022000F06AF8208105F12A
:103C30000A01022000F064F8608105F10C01022005
:103C400000F05EF8A08105F10E01022000F058F8A6
:103C5000E08105F11001022000F052F8208205F108
:103C60001201022000F04CF8608205F114010220DC
:103C700000F046F8A08205F11601022000F040F89D
:103C8000E08205F11801022000F03AF8208305F1E6
:103C90001A01022000F034F8608305F11C010220B3
:103CA00000F02EF8A08305F11E01022000F028F894
:103CB000E08305F12001022000F022F8208405F1C4
:103CC0002201022000F01CF8608405F1240102208A
:103CD00000F016F8A08405F12601022000F010F88B
:103CE000E08405F12801022000F00AF8208515F88B
:103CF0002A0F84F82A00687884F82B00304670BDBB
:103D00000246002004E011F8013B43EA002080B2A3
:103D1000521E92B2F7D270470246002003E011F81B
:103D2000013B43EA0020521E92B2F8D2704770B5B0
:103D3000002614460546172902D26FF0090070BD0F
:103D40002878207068786070A878A070E878E070B3
:103D500028792071687904F1090200F00F00607180
:103D6000A879A071E879022100F03F00E071287A7B
:103D700000F003002072688900F0BEF9B5F90C006C
:103D800004F10B02022100F0AEF8B5F90E0004F1C7
:103D90000D02022100F0A7F8288A04F10F02022187
:103DA00000F0AAF9688A04F11102C0F30C000221A4
:103DB00000F099F8B5F9140004F11302022100F0A3
:103DC00092F8B5F9160004F11502022100F08BF803
:103DD000304670BD70B5002614460546122902D241
:103DE0006FF0090070BD2878621C00F0030020709D
:103DF0006888022100F080F9A888E21C022100F006
:103E00007BF9A87900F001006071E87900F0070003
:103E1000A071287AE071687A2072A87A00F07F0099
:103E20006072E87A00F07F00A072287B00F0030047
:103E3000E072687B00F003002073A87B00F00F00A5
:103E40006073E87BA073287CE073687C2074A87C96
:103E500000F003006074304670BD70B50026144653
:103E60000546162902D26FF0090070BD287820702F
:103E700068786070A878A070E878221D00F07F0054
:103E8000E070A8880221C0F30B0000F035F9A87992
:103E900004F10C0200F07F00A071E879E071287A4B
:103EA0002072687A022100F001006072A87A00F0A6
:103EB0000700E072A88900F01FF9E88904F10E02FA
:103EC000022100F019F9288A04F11002022100F001
:103ED00013F9A87CA074E87CE074287D2075687DC7
:103EE0006075304670BD10B5002306E0CC1A14444E
:103EF00004F8010C00125B1C9BB28B42F6D310BD80
:103F000070B5002615460446202902D26FF009003C
:103F100070BD2088022100F0EFF8A07805F11802AA
:103F200000F00100A870E078022100F00F00E870B6
:103F3000207900F00F002871607900F01F0068718F
:103F4000A07900F07F00A871E07900F07F00E871AF
:103F5000207A00F001002872607A6872A07A00F07E
:103F60000100A872E07A00F00300E872207B00F004
:103F70001F002873607B00F003006873A07B00F0D3
:103F80000300A873E07B00F00700E873207C00F0DA
:103F90001F002874607C00F001006874A07CA87485
:103FA000E07CE874207D2875607D6875A07DA8752B
:103FB000E07DE875208B00F09FF8A07EA876E07E7B
:103FC000E876207F00F00F002877607F6877A07F79
:103FD00000F00F00A877E07FE877304670BD70B53D
:103FE0000026144605460B2902D26FF0090070BD69
:103FF0002878621D00F07F0020706878022100F0B0
:104000000F006070A87800F07F00A070E87800F0E2
:104010000300E070287900F07F002071E88800F04C
:104020006BF8287AE071687A2072A87A00F03F0075
:104030006072E87AA072304670BD0023052902D272
:104040006FF009007047017801F0010111704178AB
:1040500001F001015170817801F001019170C17886
:1040600001F00301D170007910711846704770B5E6
:10407000002614460546172902D26FF0090070BDCC
:10408000287804F10A0200F00F0020706878607050
:10409000A878022100F00F00A070E878E07028797D
:1040A00000F00F00207168796071A87900F03F007E
:1040B000A071E87900F00F00E071287A2072687A28
:1040C00000F03F006072688900F016F8A88904F1DA
:1040D0000C02022100F010F8A87BA073E87BE073CB
:1040E00004F112020421286900F013F8287D00F081
:1040F0000100A075304670BD10B5002306E0CC1A53
:10410000144404F8010C000A5B1C9BB28B42F6D3EA
:1041100010BD10B5002306E0CC1A144404F8010CBD
:10412000000A5B1C9BB28B42F6D310BD2DE9F04F09
:10413000C5B000F14203439300F5B27342932033BC
:10414000419318334093817090F8CC71144607F076
:104150000F0949EA010980F8CC91B0F84211A0F8A2
:104160007C11002290F8E6720021834600F5AC7CB9
:1041700000F5DA7600F5E47A00F12C05E8461346FE
:10418000FF2F01D180F8E61290F8E572012F22D1BD
:1041900090F8E67217B1012F18D01CE090F88671E4
:1041A00080F8E772202780F8867190F8C57117F0C3
:1041B000600F05D0ABF85410052C0CD205240AE092
:1041C000B0F85870BF00ABF85470F5E790F8E742CC
:1041D0008BF886410624072C11D2DFE804F0100E7C
:1041E0000C0A0806040001270AE00D2708E024272E
:1041F00006E0442704E05A2702E0712700E0832705
:10420000C7F188001FFA80F903E05B1C08F8011B66
:104210009BB24B45F9D3E846062C0BD3BAB9C7F18C
:10422000010080B208EB00020B216046FFF7D7FEC9
:10423000024601E0052C0AD34AB9C7F10D0080B24D
:1042400008EB000217214398FFF771FD0246042C8A
:104250000AD34AB9C7F1240080B208EB000220213A
:104260004298FFF74DFE0246032C0AD34AB9C7F124
:10427000440080B208EB000216214198FFF7EDFDE3
:104280000246022C0AD34AB9C7F15A0080B208EBA1
:10429000000217214098FFF7EAFE0246C4B1A2BB14
:1042A0009AF80410C7F1710080B2890609D5A9787F
:1042B00041F001013170A97841F001013173A97811
:1042C000B17408EB000212213046FFF783FD02466D
:1042D000DAB9C7F1830080B208EB0002052150462D
:1042E000FFF7ABFE020010D14B466A4639465846EE
:1042F000FEF77CFD020008D1584600F0D2FE020015
:1043000003D1584600F09CFE024645B01046BDE879
:10431000F08F00F82C1F0022427002238370C270BD
:10432000017142718371C27170474FF42062028043
:104330004FF47A72426043F2C8228260C26008225F
:1043400002742822002142740922827408467047B0
:10435000082202700B2242704FF47A7242604FF4CE
:10436000206202815210002142819200828108461F
:10437000704700210170122242700F2282700222C7
:10438000C27048F6A04242600C2202810846704783
:1043900048F2030120F8021B891E20F8021B48F294
:1043A000410101800E2282700A21C170062303712F
:1043B00042718171C3710222027221214172002176
:1043C000418101734FF4B473C38103824382C023DC
:1043D0008382C3820383082383761023C376012359
:1043E000037742778377C27780F820104FF42062FA
:1043F0004284828448F2300282624FF47A72C2624E
:104400005200026342634FF21862C26343F2C82251
:10441000836302644FF4FA524264084670470121F4
:1044200080F82810022180F829100A2180F82A102B
:104430004FF4E6614162704770B545890C460D60E6
:10444000B0F90C10A180B0F90E20E2804389A3607E
:104450008389A3810026C089E0816682402330469B
:1044600023750DB901B93AB1012020742846FEF731
:1044700002FDE082304670BD2074FAE7F8B50026F0
:104480000D468DF8006090F87011344611F0100F51
:1044900000D101246A463121FEF74CFA9DF8001044
:1044A00001F00101A14202D101212970F8BD2E7055
:1044B000F8BD032180F8E412002180F8E51280F8AD
:1044C000E61280F8E71280F8E81280F8E91280F826
:1044D000EA12C0F8EC12A0F8F01208467047FF216B
:1044E00080F8E612002280F8EA22C0F8EC22A0F858
:1044F000F02290F8E81209B180F8631190F8E912FF
:1045000009B180F8601180F88D211046704790F84D
:10451000631180F8E81290F8601180F8E91290F8C1
:104520006311002201F07F0180F8631190F8E432FA
:1045300090F8601163F39F0180F86011012180F809
:104540008D1190F8AE1280F8EA1280F887111046AB
:104550007047F0B5B0F8DE21B0F8D6314FF48036B0
:1045600000211344751EB34200D32B461F04B0F83C
:10457000D2416FF00E020223B4B1B7FBF4F4C0F8DD
:10458000EC42B0F864713F0474B1B7FBF4F2B2428C
:1045900000D32A46A0F8F022A0F8942180F88E31AA
:1045A00011F10F0F02D00AE01146F9E74FF4004174
:1045B000A0F8F012A0F8941180F88E31002108467E
:1045C000F0BD70B514460D460646FEF741FE0028C4
:1045D00030D13046FEF745FE00282BD1FA21304677
:1045E000FEF797FB002825D1012240F28171304669
:1045F000FEF7D6FB00281DD1052240F2836130462C
:10460000FEF7CEFB002815D121463046FEF781FB90
:1046100000280FD101224FF4F0613046FEF7C0FBB5
:10462000002807D12A463046BDE8704040F2847128
:10463000FEF7C8BB70BD2DE9F041804600201D4645
:104640000C4640F283778E1822E0F0B9224640F201
:1046500094714046FEF7A4FBB8B9002239464046A3
:10466000FEF79EFB88B905214046FEF752FB60B974
:10467000012239464046FEF793FB30B904232A460F
:104680004FF4F2614046FEF797F9641CE4B22D1D29
:10469000A642DAD8BDE8F0817CB50D4606464FF457
:1046A0009661FEF736FB04000ED101200090034610
:1046B0000190E52229463046FEF734FB040003D181
:1046C00003213046FFF725FE20467CBD1CB590F83F
:1046D0007021002312F0100F00D10123012200925B
:1046E00001923122FEF71EFB1CBD2DE9FC410D4657
:1046F0000746DDE908010A9ECDE900011C4629466E
:10470000384600F086F9002807D102B0324621462B
:104710002846BDE8F041FEF750BCBDE8FC812DE91C
:10472000FC410D460746DDE908010A9ECDE900017E
:104730001C462946384600F050F9002807D102B03F
:10474000324621462846BDE8F041FEF736BCBDE8BA
:10475000FC812DE9FC410D460746DDE908010A9E72
:10476000CDE900011C462946384600F06EF90028C4
:1047700007D102B0324621462846BDE8F041FEF797
:104780001CBCBDE8FC813CB5DDE90545CDE9004533
:1047900000F01EF8002801D1012161703CBDFCB57C
:1047A0001D46DDE90776CDE90076144600F010F8E5
:1047B00000280CD10021A9742171B1226271E1712C
:1047C000D421217296F82210E97110213971FCBDB3
:1047D0002DE9F04F4FF42064DDE9097504800024D1
:1047E0008470C470047144718471C4710472447221
:1047F0008472C472112606734FF0020C80F80DC04B
:10480000847380F80FC04FF0080B80F810B0447428
:10481000AE7F8674EE7FC67495F82060067501261B
:1048200046758475C47504834FF0FF0980F81A90AB
:1048300095F8108080F81B8095F80C8080F81C801B
:1048400044778477C4770C704C704FF0200A81F85D
:1048500002A00B20C870B5F80E80A1F8048081F882
:1048600006C04FF00D0881F8078095F80D8081F89B
:1048700008804C728E728C81CC814FF40C48A1F868
:1048800010808C744FF0380881F8138081F81490F0
:104890004E7514701A215170947082F803A016712D
:1048A000CC2151719071D671F5211172092151728B
:1048B000B5F81480A2F80A80B5F81A80A2F80C8026
:1048C00082F80EB04FF0780882F80F8014611475EA
:1048D0001E705C809C809C7195F82120DA711872A2
:1048E000597215F8070F9872E878D8721E73687FAE
:1048F0005873287F9873C720D87383F81090DB20F3
:10490000587483F812C07C70BE70FE70212038711C
:104910002046BDE8F08F7CB51446DDE90625CDE9DB
:1049200000251E462246FFF753FF002811D10F2213
:10493000A2710D2161726B8A63812B8BA381082385
:10494000A373B823E37332727172A979B172697A71
:10495000F1727CBD3CB51C460D46DDE90513CDE981
:10496000001323462946FFF733FF002803D1022115
:10497000A9723B2161743CBD3CB51C460D46DDE986
:104980000513CDE9001323462946FFF721FF002830
:1049900003D10221A9725B2161743CBD7CB5144630
:1049A000DDE90625CDE900251E462246FFF710FF6A
:1049B000002811D10722A27105216172EB8A63815F
:1049C000AB8BA3810823A3733823E3733272717214
:1049D000297AB172E97AF1727CBDFCB51D46DDE938
:1049E0000776CDE900761446FFF7F2FE00280FD1D6
:1049F0000021A9742171B1226271E171D421217267
:104A00004FF4C061216196F82210E971402139719B
:104A1000FCBDFCB51D46DDE90776CDE90076144600
:104A2000FFF779FF00280FD10021A9742171972287
:104A30006271E171B12121724FF4C061216196F878
:104A40002210E97140213971FCBDFCB51D46DDE93C
:104A50000776CDE900761446FFF7A0FF002810D1B5
:104A60000021A9740121217184226271E171B121B7
:104A700021724FF4C061216196F82210E971402142
:104A80003971FCBD2DE9F04116460F461D4604461E
:104A900032220421FFF795FD002821D12B46324612
:104AA00039462046FFF7C7FD002819D1012240F200
:104AB00083712046FEF774F9002811D1002240F2DC
:104AC00081712046FEF76CF9002809D12046FEF7D7
:104AD000C2FB002804D12046BDE8F041FEF7BEBB72
:104AE000BDE8F08170B5044600F5AC71FEF707FD36
:104AF000B8B904F142012046FEF7D7FB88B904F5A6
:104B0000FD710D462046FEF78EFC50B904F1F00110
:104B10002846FEF75FFA04F52D72DE212046FDF7E8
:104B200027FFB4F85E11B1F5805F03D24BF6CC429B
:104B3000A4F85E2120B904F19E012046FEF756FC40
:104B400094F8A21000290AD194F8A310002906D1E4
:104B500014F89E1F0901217161780901617170BD0E
:104B60007CB5044600200D468DF8040001AA3021D2
:104B70002046FDF7DFFED8B99DF8041084F87011C7
:104B80002046294600F035FA90B9204600F0C3FAD5
:104B900070B902236A4689212046FDF70DFF38B916
:104BA0009DF8002084F8CF219DF8012084F8D021C1
:104BB00094F8CF11002801F01F02214684F8CF217C
:104BC00008D10846FEF7F0F9002803D1002120465D
:104BD00000F00FFA7CBD70B586B00E46044600F5B5
:104BE0008875FEF73EFB002863D1A889B4F85E21E2
:104BF00069898DE807002B89697820466A6800F08A
:104C000063F9F0BB29782046FFF7AAFFC8BB02234F
:104C100003AAD9212046FDF7CFFE90BB9DF80C10CA
:104C200084F8AF129DF80D1084F8B01220460223CC
:104C300003AA1421FEF7DAF818BB9DF80C1084F8CB
:104C400049109DF80D1084F84A102046062303AA47
:104C5000AC21FDF7B1FEA0B9062303AA0D21204621
:104C6000FEF7C4F868B99DF80C1004F8421F9DF8CF
:104C70000D1061709DF80E10A1709DF80F10E1707D
:104C800000E010E09DF8101021719DF81110617185
:104C900094F88D110E2904D00F2905D0102908D1C0
:104CA00005E06FF01B0004E06FF01C0001E06FF006
:104CB0001D00307006B070BD10B50B4686B00446BE
:104CC0006A4617211846FFF732F8002805D1172346
:104CD0006A460D212046FEF789F806B010BD80F81F
:104CE000CA110A468521FEF75BB8B0F8B43200223B
:104CF00033B19BB24B43C0F8AC31416110467047B1
:104D00006FF00E02FAE70022A0F8A81110467047D3
:104D10000022A0F8A6111046704780F8C8110A4674
:104D20008321FEF73DB82DE9FF4F064685B000F51B
:104D3000B27800F5C27B00F5CE70049006F5DA700B
:104D4000039071701298F06013983061149889463E
:104D50007061924606F5E47506F1A40406F539770C
:104D600003213046FFF7D5FA4846B9F1070F54D072
:104D700008DCB9F1070F15D2DFE809F01419222B6E
:104D8000343D460024286CD007DC08284ED011287A
:104D900055D0B9F1120F05D15AE025286BD0B9F1E1
:104DA000260F73D06FF0030009B0BDE8F08FCDE996
:104DB0000054DDE9033259464046FFF709FD6EE035
:104DC000CDE90054DDE9033259464046FFF7E6FDE0
:104DD00065E0CDE90054DDE9033259464046FFF76E
:104DE0009AFD5CE0CDE90054DDE9033259464046C6
:104DF000FFF7B0FD53E0CDE90054DDE90332594639
:104E00004046FFF7B9FD4AE0CDE90054DDE9033241
:104E100059464046FFF7E1FD41E0CDE90054DDE9A8
:104E2000033259464046FFF710FE38E0CDE9005402
:104E3000DDE9033259464046FFF7EBFD2FE0CDE9AF
:104E40000054DDE9033259464046FFF79CFC26E05A
:104E5000CDE90054DDE9033259464046FFF79FFC97
:104E60001DE0CDE900540297DDE903325946404682
:104E7000FFF76FFC13E0CDE900540297DDE9033240
:104E800059464046FFF74BFC09E0FFE7CDE90054E7
:104E90000297DDE9033259464046FFF726FC002819
:104EA00082D1A8F800A0A6F818A0DDE912233046A8
:104EB000089900F068F80028F2D1149909B030463A
:104EC000BDE8F04FFFF711BF2DE9F8430446DDE9D7
:104ED00009901D4616460F46DDF82080FDF7B6FF07
:104EE000310301EB5001B1FBF0F0FF2803D9FF21A2
:104EF00084F88B1101E084F88B0184F8A2712046BC
:104F000094F88B214B21FDF74BFF28B9204694F8EC
:104F1000A2216021FDF744FF94F8A2118DF8001042
:104F20008DF8011028B902236A4678212046FDF742
:104F30005DFFA4F85250002812D12A461C212046B9
:104F4000FDF740FF00280BD1424664212046FDF7C3
:104F500039FF002804D14A4666212046FDF732FF7A
:104F6000BDE8F8831CB50B4604466A460521184681
:104F7000FFF763F8002805D105236A468321204600
:104F8000FDF734FF1CBD7CB50E46B0F85E111C4623
:104F9000154681B18660C0E9035400F5CE7200F574
:104FA000C271CDE90012B0F85E3122462946304682
:104FB000FDF78AFF7CBD6FF00E007CBD70B50C461E
:104FC000054600260978607805F2C312FEF74CF911
:104FD000E178A07805F5E272FEF763F9304670BD1E
:104FE00090F86031002261F39F0380F86031104631
:104FF00070470A462721FDF7D3BE70B5044690F8E6
:10500000CC0104F5E47100F00F0040F0800084F85A
:10501000CC012046FFF7A6FF054694F8CC010321FA
:1050200000F00F0084F8CC012046FFF772F994F8E5
:10503000E502012802D12046FFF751FA284670BD4B
:1050400030B50146002291F8CC112C3009091346E5
:105050004FF003054FF002040DD04178FF2910D026
:10506000491C4170817881F0020181700178032927
:1050700009D0042910D0057043708470C3701046A5
:1050800030BD8021EDE7C17881F00101C1700121BF
:10509000417004210170F2E7C17881F00101C17013
:1050A000EDE7F0B50246002592F8CC112C30090945
:1050B0002B464FF003074FF0020612D04179FF292B
:1050C00013D0491C41718179082481F0020181715A
:1050D000017903290BD0062914D0072913D00829F8
:1050E00014D00771437186710AE08021EAE792F8D3
:1050F000C611890702D50621017100E004714371D0
:10510000C37101E0437104712846F0BDC17981F09B
:105110000101C171F7E738B5044600208DF80000A1
:105120002278014612B18DF800100EE04EF6602193
:105130002046FFF7CBFA38BD69462046FFF79EF9B7
:1051400018B901212046FDF7DEFD9DF8001001434E
:10515000F2D038BD38B50C4602F10A01009190F842
:10516000981393B241F00101D0F8A0032246FBF757
:10517000A1FD38BD38B50C4602F10A01009193B289
:1051800090F89813D0F8A0032246FBF783FE38BDB1
:105190000907090E002804DB00F1E02080F8001464
:1051A000704700F00F0000F1E02080F8141D7047F8
:1051B000FEE730B50346FF2031240EE013F8012B43
:1051C00050400022050602D584EA400000E040007D
:1051D000521CD2B2C0B2082AF4D3491EC9B2EDD2D1
:1051E00030BD10B50446FDF786FD00282AD12046C3
:1051F000FDF7CFF9002825D12046FDF764FD0028F2
:1052000020D12046FDF750FB00281BD1012120466C
:10521000FDF7F0FB002815D119212046FDF72AFCE7
:1052200000280FD144F620612046FDF75DFC0028E0
:1052300008D18C212046FDF7A3FA2046BDE8104096
:10524000FDF7FFBC10BD00001CB5FBF7F5FEFDF738
:1052500037F8FCF7ABFE394C37480025206038485A
:10526000C4E901054FF48040C4E903506561A561BC
:10527000E56120462562FBF7D9FB08B172B6FEE76F
:105280002E483049543001604FF41651C0E90115E1
:105290000C21C560C0E904518561C561FCF776FB4E
:1052A00008B172B6FEE7284852210122C0F8A04397
:1052B00080F8981320212548FBF77CFB244D686873
:1052C000FFF78FFF23A0254FD0E90010CDE9001094
:1052D00001213846FBF742FB0028F9D000244FF4A7
:1052E0007A766868FDF70BFD287008BB134968687B
:1052F0001C39FDF725FA28706868FDF73FF90F495A
:1053000028701C39088B8DF80200000A8DF8030004
:10531000C87E8DF8040005216846FFF74AFF8DF826
:10532000050006480A23072269465430FCF708FCAA
:10533000641CB442D5DBCBE700540040F8030020E6
:10534000A086010000440040380000200004024014
:1053500000000020FFDD000000000A000000024005
:105360004FF04070E1EE100A7047000000000000AE
:105370000000010203040607080900000000010202
:1053800003040000A45300080000002038000000BF
:10539000C4010008DC53000838000020B80B0000EE
:1053A000E0010008000000003800002001000000BB
:1053B00010000000000000000024F40004000000C1
:1053C000E2FFFFFF5802000032000000080000006A
:0C53D00032000000580200000100000044
:040000050800018965
:00000001FF
